{
  "_format": "hh-sol-artifact-1",
  "contractName": "VertigoToken",
  "sourceName": "contracts/VertigoToken.sol",
  "abi": [
    {
      "inputs": [
        {
          "internalType": "address",
          "name": "ownerRecipient",
          "type": "address"
        },
        {
          "internalType": "address",
          "name": "teamWalletAddress",
          "type": "address"
        },
        {
          "internalType": "address",
          "name": "teamPayoutWalletAddress",
          "type": "address"
        }
      ],
      "stateMutability": "nonpayable",
      "type": "constructor"
    },
    {
      "anonymous": false,
      "inputs": [
        {
          "indexed": true,
          "internalType": "address",
          "name": "owner",
          "type": "address"
        },
        {
          "indexed": true,
          "internalType": "address",
          "name": "spender",
          "type": "address"
        },
        {
          "indexed": false,
          "internalType": "uint256",
          "name": "value",
          "type": "uint256"
        }
      ],
      "name": "Approval",
      "type": "event"
    },
    {
      "anonymous": false,
      "inputs": [
        {
          "indexed": false,
          "internalType": "uint256",
          "name": "id",
          "type": "uint256"
        },
        {
          "indexed": false,
          "internalType": "uint256",
          "name": "newParam",
          "type": "uint256"
        }
      ],
      "name": "OwnerValueSet",
      "type": "event"
    },
    {
      "anonymous": false,
      "inputs": [
        {
          "indexed": false,
          "internalType": "bool",
          "name": "success",
          "type": "bool"
        },
        {
          "indexed": false,
          "internalType": "uint8",
          "name": "typecode",
          "type": "uint8"
        }
      ],
      "name": "PropertyCreated",
      "type": "event"
    },
    {
      "anonymous": false,
      "inputs": [
        {
          "indexed": false,
          "internalType": "address",
          "name": "fulfiller",
          "type": "address"
        }
      ],
      "name": "Reset",
      "type": "event"
    },
    {
      "anonymous": false,
      "inputs": [
        {
          "indexed": false,
          "internalType": "address",
          "name": "_from",
          "type": "address"
        },
        {
          "indexed": false,
          "internalType": "uint256",
          "name": "_tokens",
          "type": "uint256"
        },
        {
          "indexed": false,
          "internalType": "uint8",
          "name": "VCash",
          "type": "uint8"
        }
      ],
      "name": "Stake",
      "type": "event"
    },
    {
      "anonymous": false,
      "inputs": [
        {
          "indexed": false,
          "internalType": "address",
          "name": "_user",
          "type": "address"
        }
      ],
      "name": "StakeClaimed",
      "type": "event"
    },
    {
      "anonymous": false,
      "inputs": [
        {
          "indexed": false,
          "internalType": "uint256",
          "name": "original",
          "type": "uint256"
        },
        {
          "indexed": false,
          "internalType": "uint256",
          "name": "end",
          "type": "uint256"
        },
        {
          "indexed": false,
          "internalType": "uint256",
          "name": "tax",
          "type": "uint256"
        }
      ],
      "name": "Tax",
      "type": "event"
    },
    {
      "anonymous": false,
      "inputs": [
        {
          "indexed": false,
          "internalType": "uint256",
          "name": "tokens",
          "type": "uint256"
        }
      ],
      "name": "TeamBurn",
      "type": "event"
    },
    {
      "anonymous": false,
      "inputs": [
        {
          "indexed": true,
          "internalType": "address",
          "name": "from",
          "type": "address"
        },
        {
          "indexed": true,
          "internalType": "address",
          "name": "to",
          "type": "address"
        },
        {
          "indexed": false,
          "internalType": "uint256",
          "name": "value",
          "type": "uint256"
        }
      ],
      "name": "Transfer",
      "type": "event"
    },
    {
      "anonymous": false,
      "inputs": [
        {
          "indexed": false,
          "internalType": "uint256",
          "name": "amount",
          "type": "uint256"
        },
        {
          "indexed": false,
          "internalType": "address",
          "name": "user",
          "type": "address"
        }
      ],
      "name": "Unstake",
      "type": "event"
    },
    {
      "inputs": [
        {
          "internalType": "address",
          "name": "owner",
          "type": "address"
        },
        {
          "internalType": "address",
          "name": "spender",
          "type": "address"
        }
      ],
      "name": "allowance",
      "outputs": [
        {
          "internalType": "uint256",
          "name": "",
          "type": "uint256"
        }
      ],
      "stateMutability": "view",
      "type": "function"
    },
    {
      "inputs": [
        {
          "internalType": "address",
          "name": "spender",
          "type": "address"
        },
        {
          "internalType": "uint256",
          "name": "amount",
          "type": "uint256"
        }
      ],
      "name": "approve",
      "outputs": [
        {
          "internalType": "bool",
          "name": "",
          "type": "bool"
        }
      ],
      "stateMutability": "nonpayable",
      "type": "function"
    },
    {
      "inputs": [
        {
          "internalType": "address",
          "name": "account",
          "type": "address"
        }
      ],
      "name": "balanceOf",
      "outputs": [
        {
          "internalType": "uint256",
          "name": "",
          "type": "uint256"
        }
      ],
      "stateMutability": "view",
      "type": "function"
    },
    {
      "inputs": [
        {
          "internalType": "uint256",
          "name": "index",
          "type": "uint256"
        }
      ],
      "name": "buy_special_property",
      "outputs": [
        {
          "internalType": "uint256",
          "name": "",
          "type": "uint256"
        }
      ],
      "stateMutability": "nonpayable",
      "type": "function"
    },
    {
      "inputs": [
        {
          "internalType": "uint256",
          "name": "profileId",
          "type": "uint256"
        }
      ],
      "name": "buy_vcash_property",
      "outputs": [
        {
          "internalType": "uint256",
          "name": "",
          "type": "uint256"
        }
      ],
      "stateMutability": "nonpayable",
      "type": "function"
    },
    {
      "inputs": [
        {
          "internalType": "uint256",
          "name": "profileId",
          "type": "uint256"
        }
      ],
      "name": "buy_vertigo_property",
      "outputs": [
        {
          "internalType": "uint256",
          "name": "",
          "type": "uint256"
        }
      ],
      "stateMutability": "nonpayable",
      "type": "function"
    },
    {
      "inputs": [],
      "name": "clear_staking_data",
      "outputs": [],
      "stateMutability": "nonpayable",
      "type": "function"
    },
    {
      "inputs": [],
      "name": "decimals",
      "outputs": [
        {
          "internalType": "uint8",
          "name": "",
          "type": "uint8"
        }
      ],
      "stateMutability": "view",
      "type": "function"
    },
    {
      "inputs": [
        {
          "internalType": "address",
          "name": "spender",
          "type": "address"
        },
        {
          "internalType": "uint256",
          "name": "subtractedValue",
          "type": "uint256"
        }
      ],
      "name": "decreaseAllowance",
      "outputs": [
        {
          "internalType": "bool",
          "name": "",
          "type": "bool"
        }
      ],
      "stateMutability": "nonpayable",
      "type": "function"
    },
    {
      "inputs": [
        {
          "internalType": "address",
          "name": "_newRecipient",
          "type": "address"
        }
      ],
      "name": "edit_owner_recipient",
      "outputs": [],
      "stateMutability": "nonpayable",
      "type": "function"
    },
    {
      "inputs": [
        {
          "internalType": "address",
          "name": "user",
          "type": "address"
        }
      ],
      "name": "get_staked_vert_amount",
      "outputs": [
        {
          "internalType": "uint256",
          "name": "",
          "type": "uint256"
        }
      ],
      "stateMutability": "view",
      "type": "function"
    },
    {
      "inputs": [],
      "name": "get_vertigo_manager",
      "outputs": [
        {
          "components": [
            {
              "internalType": "bool",
              "name": "playable",
              "type": "bool"
            },
            {
              "internalType": "address",
              "name": "uniswapPoolAddress",
              "type": "address"
            },
            {
              "internalType": "uint256",
              "name": "stakeWithdrawalCount",
              "type": "uint256"
            },
            {
              "internalType": "uint256",
              "name": "benchmarkTime",
              "type": "uint256"
            },
            {
              "internalType": "uint256",
              "name": "yearsPassed",
              "type": "uint256"
            },
            {
              "internalType": "uint256",
              "name": "weeksPassed",
              "type": "uint256"
            },
            {
              "internalType": "uint256",
              "name": "weeklyPayoutDecrement",
              "type": "uint256"
            },
            {
              "internalType": "uint256",
              "name": "teamPayout",
              "type": "uint256"
            },
            {
              "internalType": "uint256",
              "name": "poolPayout",
              "type": "uint256"
            },
            {
              "internalType": "uint256",
              "name": "runningPayout",
              "type": "uint256"
            },
            {
              "internalType": "uint256",
              "name": "vertigoPoolBalance",
              "type": "uint256"
            },
            {
              "internalType": "uint256",
              "name": "ownerPayoutShare",
              "type": "uint256"
            },
            {
              "internalType": "uint256",
              "name": "payoutPerVCash",
              "type": "uint256"
            },
            {
              "internalType": "uint256",
              "name": "totalVCashStaked",
              "type": "uint256"
            },
            {
              "internalType": "uint256",
              "name": "lastReset",
              "type": "uint256"
            },
            {
              "internalType": "uint256",
              "name": "weeklyPayoutAmount",
              "type": "uint256"
            }
          ],
          "internalType": "struct VERTStorage.VertigoTokenStorage",
          "name": "",
          "type": "tuple"
        }
      ],
      "stateMutability": "view",
      "type": "function"
    },
    {
      "inputs": [],
      "name": "get_weekly_payout_amount",
      "outputs": [
        {
          "internalType": "uint256",
          "name": "quantity",
          "type": "uint256"
        }
      ],
      "stateMutability": "view",
      "type": "function"
    },
    {
      "inputs": [
        {
          "internalType": "address",
          "name": "spender",
          "type": "address"
        },
        {
          "internalType": "uint256",
          "name": "addedValue",
          "type": "uint256"
        }
      ],
      "name": "increaseAllowance",
      "outputs": [
        {
          "internalType": "bool",
          "name": "",
          "type": "bool"
        }
      ],
      "stateMutability": "nonpayable",
      "type": "function"
    },
    {
      "inputs": [
        {
          "internalType": "uint256[]",
          "name": "args",
          "type": "uint256[]"
        },
        {
          "internalType": "uint256",
          "name": "opcode",
          "type": "uint256"
        }
      ],
      "name": "infinite_connector",
      "outputs": [],
      "stateMutability": "nonpayable",
      "type": "function"
    },
    {
      "inputs": [],
      "name": "mint_profile",
      "outputs": [
        {
          "internalType": "uint256",
          "name": "newId",
          "type": "uint256"
        }
      ],
      "stateMutability": "nonpayable",
      "type": "function"
    },
    {
      "inputs": [
        {
          "internalType": "address",
          "name": "_user",
          "type": "address"
        },
        {
          "internalType": "uint256",
          "name": "share",
          "type": "uint256"
        }
      ],
      "name": "modify_team_payout_recipients",
      "outputs": [
        {
          "internalType": "uint256",
          "name": "",
          "type": "uint256"
        }
      ],
      "stateMutability": "nonpayable",
      "type": "function"
    },
    {
      "inputs": [],
      "name": "name",
      "outputs": [
        {
          "internalType": "string",
          "name": "",
          "type": "string"
        }
      ],
      "stateMutability": "view",
      "type": "function"
    },
    {
      "inputs": [],
      "name": "owner",
      "outputs": [
        {
          "internalType": "address",
          "name": "",
          "type": "address"
        }
      ],
      "stateMutability": "view",
      "type": "function"
    },
    {
      "inputs": [
        {
          "internalType": "uint256",
          "name": "id",
          "type": "uint256"
        },
        {
          "internalType": "address[]",
          "name": "addresses",
          "type": "address[]"
        },
        {
          "internalType": "uint256",
          "name": "newParam",
          "type": "uint256"
        }
      ],
      "name": "owner_set_value_handler",
      "outputs": [],
      "stateMutability": "nonpayable",
      "type": "function"
    },
    {
      "inputs": [],
      "name": "password",
      "outputs": [
        {
          "internalType": "uint256",
          "name": "",
          "type": "uint256"
        }
      ],
      "stateMutability": "view",
      "type": "function"
    },
    {
      "inputs": [],
      "name": "profileContract",
      "outputs": [
        {
          "internalType": "address",
          "name": "",
          "type": "address"
        }
      ],
      "stateMutability": "view",
      "type": "function"
    },
    {
      "inputs": [],
      "name": "propertyContract",
      "outputs": [
        {
          "internalType": "address",
          "name": "",
          "type": "address"
        }
      ],
      "stateMutability": "view",
      "type": "function"
    },
    {
      "inputs": [
        {
          "internalType": "uint256",
          "name": "id",
          "type": "uint256"
        }
      ],
      "name": "public_view_bool",
      "outputs": [
        {
          "internalType": "bool",
          "name": "",
          "type": "bool"
        }
      ],
      "stateMutability": "view",
      "type": "function"
    },
    {
      "inputs": [],
      "name": "reset_pool_testing",
      "outputs": [],
      "stateMutability": "nonpayable",
      "type": "function"
    },
    {
      "inputs": [
        {
          "internalType": "address",
          "name": "user",
          "type": "address"
        }
      ],
      "name": "reset_user_staking_values",
      "outputs": [],
      "stateMutability": "nonpayable",
      "type": "function"
    },
    {
      "inputs": [
        {
          "internalType": "address",
          "name": "_user",
          "type": "address"
        },
        {
          "internalType": "uint256",
          "name": "userPass",
          "type": "uint256"
        },
        {
          "internalType": "uint256",
          "name": "stakedAmount",
          "type": "uint256"
        }
      ],
      "name": "retrieve_staking_dividends_from_withdrawal_pool",
      "outputs": [
        {
          "internalType": "bool",
          "name": "",
          "type": "bool"
        }
      ],
      "stateMutability": "nonpayable",
      "type": "function"
    },
    {
      "inputs": [],
      "name": "retrieve_vert_staking_dividends",
      "outputs": [],
      "stateMutability": "nonpayable",
      "type": "function"
    },
    {
      "inputs": [],
      "name": "sellTax",
      "outputs": [
        {
          "internalType": "uint256",
          "name": "",
          "type": "uint256"
        }
      ],
      "stateMutability": "view",
      "type": "function"
    },
    {
      "inputs": [
        {
          "internalType": "uint256",
          "name": "profileId",
          "type": "uint256"
        },
        {
          "internalType": "uint256",
          "name": "vcash",
          "type": "uint256"
        }
      ],
      "name": "stake_vcash",
      "outputs": [],
      "stateMutability": "nonpayable",
      "type": "function"
    },
    {
      "inputs": [
        {
          "internalType": "uint256",
          "name": "amount",
          "type": "uint256"
        }
      ],
      "name": "stake_vert",
      "outputs": [],
      "stateMutability": "nonpayable",
      "type": "function"
    },
    {
      "inputs": [],
      "name": "stakingEnabled",
      "outputs": [
        {
          "internalType": "bool",
          "name": "",
          "type": "bool"
        }
      ],
      "stateMutability": "view",
      "type": "function"
    },
    {
      "inputs": [],
      "name": "symbol",
      "outputs": [
        {
          "internalType": "string",
          "name": "",
          "type": "string"
        }
      ],
      "stateMutability": "view",
      "type": "function"
    },
    {
      "inputs": [],
      "name": "teamPayoutWallet",
      "outputs": [
        {
          "internalType": "address",
          "name": "",
          "type": "address"
        }
      ],
      "stateMutability": "view",
      "type": "function"
    },
    {
      "inputs": [],
      "name": "teamWallet",
      "outputs": [
        {
          "internalType": "address",
          "name": "",
          "type": "address"
        }
      ],
      "stateMutability": "view",
      "type": "function"
    },
    {
      "inputs": [],
      "name": "totalSupply",
      "outputs": [
        {
          "internalType": "uint256",
          "name": "",
          "type": "uint256"
        }
      ],
      "stateMutability": "view",
      "type": "function"
    },
    {
      "inputs": [
        {
          "internalType": "address",
          "name": "to",
          "type": "address"
        },
        {
          "internalType": "uint256",
          "name": "amount",
          "type": "uint256"
        }
      ],
      "name": "transfer",
      "outputs": [
        {
          "internalType": "bool",
          "name": "",
          "type": "bool"
        }
      ],
      "stateMutability": "nonpayable",
      "type": "function"
    },
    {
      "inputs": [
        {
          "internalType": "address",
          "name": "from",
          "type": "address"
        },
        {
          "internalType": "address",
          "name": "to",
          "type": "address"
        },
        {
          "internalType": "uint256",
          "name": "amount",
          "type": "uint256"
        }
      ],
      "name": "transferFrom",
      "outputs": [
        {
          "internalType": "bool",
          "name": "",
          "type": "bool"
        }
      ],
      "stateMutability": "nonpayable",
      "type": "function"
    },
    {
      "inputs": [],
      "name": "uniswapPoolAddress",
      "outputs": [
        {
          "internalType": "address",
          "name": "",
          "type": "address"
        }
      ],
      "stateMutability": "view",
      "type": "function"
    },
    {
      "inputs": [
        {
          "internalType": "uint256",
          "name": "amount",
          "type": "uint256"
        }
      ],
      "name": "unstake_vert",
      "outputs": [],
      "stateMutability": "nonpayable",
      "type": "function"
    },
    {
      "inputs": [
        {
          "internalType": "uint256",
          "name": "propertyId",
          "type": "uint256"
        },
        {
          "internalType": "uint256",
          "name": "profileId",
          "type": "uint256"
        }
      ],
      "name": "upgrade_property",
      "outputs": [],
      "stateMutability": "nonpayable",
      "type": "function"
    },
    {
      "inputs": [
        {
          "internalType": "address",
          "name": "user",
          "type": "address"
        }
      ],
      "name": "view_user_vert_dividends",
      "outputs": [
        {
          "internalType": "uint256",
          "name": "rewardSum",
          "type": "uint256"
        }
      ],
      "stateMutability": "view",
      "type": "function"
    },
    {
      "inputs": [
        {
          "internalType": "uint256",
          "name": "profileId",
          "type": "uint256"
        }
      ],
      "name": "weekly_reset",
      "outputs": [],
      "stateMutability": "nonpayable",
      "type": "function"
    }
  ],
  "bytecode": "0x60806040523480156200001157600080fd5b50604051620038ea380380620038ea8339810160408190526200003491620002a1565b604051806040016040528060078152602001665665727469676f60c81b81525060405180604001604052806005815260200164091591549560da1b81525081600390816200008391906200038f565b5060046200009282826200038f565b505050620000b2336a027b46536c66c8e3000000620001b960201b60201c565b6003600b55600a8054336001600160a01b031991821617909155690fe1c215e8f838e00000601b55680e795e8d5f954c000060195569017b7883c06916600000601a556050601e556014805460ff19169055604080518082019091526001600160a01b0394851681526103e8602082019081526023805460018101825560009190915291517fd57b2b5166478fd4318d2acc6cc2c704584312bdd8781b32d5d06abda57f423060029390930292830180548516918816919091179055517fd57b2b5166478fd4318d2acc6cc2c704584312bdd8781b32d5d06abda57f4231909101556005805482169385169390931790925560068054909216921691909117905562000483565b6001600160a01b038216620002145760405162461bcd60e51b815260206004820152601f60248201527f45524332303a206d696e7420746f20746865207a65726f206164647265737300604482015260640160405180910390fd5b80600260008282546200022891906200045b565b90915550506001600160a01b038216600081815260208181526040808320805486019055518481527fddf252ad1be2c89b69c2b068fc378daa952ba7f163c4a11628f55a4df523b3ef910160405180910390a35050565b505050565b80516001600160a01b03811681146200029c57600080fd5b919050565b600080600060608486031215620002b757600080fd5b620002c28462000284565b9250620002d26020850162000284565b9150620002e26040850162000284565b90509250925092565b634e487b7160e01b600052604160045260246000fd5b600181811c908216806200031657607f821691505b6020821081036200033757634e487b7160e01b600052602260045260246000fd5b50919050565b601f8211156200027f57600081815260208120601f850160051c81016020861015620003665750805b601f850160051c820191505b81811015620003875782815560010162000372565b505050505050565b81516001600160401b03811115620003ab57620003ab620002eb565b620003c381620003bc845462000301565b846200033d565b602080601f831160018114620003fb5760008415620003e25750858301515b600019600386901b1c1916600185901b17855562000387565b600085815260208120601f198616915b828110156200042c578886015182559484019460019091019084016200040b565b50858210156200044b5787850151600019600388901b60f8161c191681555b5050505050600190811b01905550565b808201808211156200047d57634e487b7160e01b600052601160045260246000fd5b92915050565b61345780620004936000396000f3fe608060405234801561001057600080fd5b50600436106102695760003560e01c806368c2151e116101515780639fd2316b116100c3578063b8844c6a11610087578063b8844c6a14610523578063bd238edf14610536578063cc1776d314610549578063d0ced8e814610552578063dd62ed3e14610565578063f4dccc951461057857600080fd5b80639fd2316b146104c4578063a3974b21146104d7578063a457c2d7146104ea578063a9059cbb146104fd578063b429f71b1461051057600080fd5b80637f8e04ea116101155780637f8e04ea1461045b57806381b70bfa1461046e5780638a31f861146104815780638da5cb5b146104965780638fca9673146104a957806395d89b41146104bc57600080fd5b806368c2151e146104075780636d9b32b11461041a57806370a082311461042d578063764fa0e61461044057806378f1eaef1461044857600080fd5b8063313ce567116101ea57806349838eb9116101ae57806349838eb9146103935780634ccd45e81461039b578063500c3270146103a35780635979c50a146103b657806359927044146103c957806367e4d36c146103f457600080fd5b8063313ce5671461033857806339509351146103475780633cfe08f41461035a5780634148f09d1461036d57806344bb8a1a1461038057600080fd5b80631b87d9c5116102315780631b87d9c5146102ff5780631cfff51b14610307578063224b610b1461031457806323b872dd1461031d5780632df077bb1461033057600080fd5b806301ccc7111461026e57806306fdde03146102aa578063095ea7b3146102bf5780631720c15c146102e257806318160ddd146102f7575b600080fd5b61029761027c366004612c63565b6001600160a01b031660009081526011602052604090205490565b6040519081526020015b60405180910390f35b6102b261058b565b6040516102a19190612ca4565b6102d26102cd366004612cd7565b61061d565b60405190151581526020016102a1565b6102f56102f0366004612d03565b610637565b005b600254610297565b6102976106e7565b600d546102d29060ff1681565b610297600b5481565b6102d261032b366004612d1c565b61070f565b6102f5610735565b604051601281526020016102a1565b6102d2610355366004612cd7565b610757565b610297610368366004612cd7565b610779565b6102d261037b366004612d5d565b610c21565b61029761038e366004612d03565b610cca565b6102f5610dc5565b6102f5610dfb565b6102976103b1366004612c63565b610e21565b6102976103c4366004612d03565b610f1b565b6005546103dc906001600160a01b031681565b6040516001600160a01b0390911681526020016102a1565b6009546103dc906001600160a01b031681565b6102f5610415366004612d92565b611106565b6006546103dc906001600160a01b031681565b61029761043b366004612c63565b611318565b610297611333565b6102f5610456366004612d03565b6113bb565b6102f5610469366004612e49565b6114ba565b6102f561047c366004612c63565b6116c0565b61048961171d565b6040516102a19190612ee5565b600a546103dc906001600160a01b031681565b6008546103dc906001600160a01b031681565b6102b2611852565b6102f56104d2366004612c63565b611861565b6007546103dc906001600160a01b031681565b6102d26104f8366004612cd7565b6118e1565b6102d261050b366004612cd7565b61196c565b6102f561051e366004612d92565b611a2f565b6102f5610531366004612fa6565b611c2d565b610297610544366004612d03565b611e65565b610297600c5481565b6102d2610560366004612d03565b612015565b610297610573366004613054565b61203c565b6102f5610586366004612d03565b612067565b60606003805461059a9061308d565b80601f01602080910402602001604051908101604052809291908181526020018280546105c69061308d565b80156106135780601f106105e857610100808354040283529160200191610613565b820191906000526020600020905b8154815290600101906020018083116105f657829003601f168201915b5050505050905090565b60003361062b818585612147565b60019150505b92915050565b600061064b82670de0b6b3a76400006130dd565b600d5490915060ff1661065d57600080fd5b8061066733611318565b101561067257600080fd5b80670de0b6b3a7640000111561068757600080fd5b6106903361226b565b61069a33826123e0565b6106a381612512565b905080601460090160008282546106ba91906130f4565b909155505033600090815260116020526040812080548392906106de9084906130f4565b90915550505050565b60185460009081036106fa5750601b5490565b601954601c5461070a9190613107565b905090565b60003361071d858285612662565b6107288585856126dc565b60019150505b9392505050565b600a546001600160a01b0316331461074c57600080fd5b61075533612880565b565b60003361062b81858561076a838361203c565b61077491906130f4565b612147565b600a546000906001600160a01b0316331461079357600080fd5b60235460015b818110156109af57846001600160a01b0316602382815481106107be576107be61311a565b60009182526020909120600290910201546001600160a01b03160361099d5783602382815481106107f1576107f161311a565b906000526020600020906002020160010154111561087857836023828154811061081d5761081d61311a565b9060005260206000209060020201600101546108399190613107565b602360008154811061084d5761084d61311a565b9060005260206000209060020201600101600082825461086d91906130f4565b909155506109459050565b6023818154811061088b5761088b61311a565b906000526020600020906002020160010154846108a89190613107565b60236000815481106108bc576108bc61311a565b906000526020600020906002020160010154116108db576108db613130565b602381815481106108ee576108ee61311a565b9060005260206000209060020201600101548461090b9190613107565b602360008154811061091f5761091f61311a565b9060005260206000209060020201600101600082825461093f9190613107565b90915550505b83602382815481106109595761095961311a565b90600052602060002090600202016001018190555060236000815481106109825761098261311a565b90600052602060002090600202016001015492505050610631565b806109a781613146565b915050610799565b5060015b81811015610ae957602381815481106109ce576109ce61311a565b906000526020600020906002020160010154600003610ad75784602382815481106109fb576109fb61311a565b906000526020600020906002020160000160006101000a8154816001600160a01b0302191690836001600160a01b031602179055508360238281548110610a4457610a4461311a565b906000526020600020906002020160010181905550836023600081548110610a6e57610a6e61311a565b90600052602060002090600202016001015411610a8a57600080fd5b836023600081548110610a9f57610a9f61311a565b90600052602060002090600202016001016000828254610abf9190613107565b9091555050602380546000906109825761098261311a565b80610ae181613146565b9150506109b3565b50604080518082019091526001600160a01b03851681526020810184905260238054859190600090610b1d57610b1d61311a565b90600052602060002090600202016001015411610b3957600080fd5b836023600081548110610b4e57610b4e61311a565b90600052602060002090600202016001016000828254610b6e9190613107565b909155505060238054600181018255600082815283517fd57b2b5166478fd4318d2acc6cc2c704584312bdd8781b32d5d06abda57f4230600290930292830180546001600160a01b0319166001600160a01b0390921691909117905560208401517fd57b2b5166478fd4318d2acc6cc2c704584312bdd8781b32d5d06abda57f4231909201919091558154610c0557610c0561311a565b9060005260206000209060020201600101549250505092915050565b6007546000906001600160a01b03163314610c3b57600080fd5b6001600b54610c4a9190613107565b83148015610c585750600082115b15610cc057601f54600090610c6e9084906130dd565b9050610c7a8582612a53565b6040516001600160a01b03861681527f94548fc9db371425d00c01cdf12439e23bf5758a39a7ff991bfa6ec0484478d19060200160405180910390a1600191505061072e565b5060009392505050565b6007546040516331a9108f60e11b8152600481018390526000916001600160a01b03169033908290636352211e90602401602060405180830381865afa158015610d18573d6000803e3d6000fd5b505050506040513d601f19601f82011682018060405250810190610d3c919061315f565b6001600160a01b031614610d4f57600080fd5b60405163225dc50d60e11b8152600481018490526000906001600160a01b038316906344bb8a1a906024016020604051808303816000875af1158015610d99573d6000803e3d6000fd5b505050506040513d601f19601f82011682018060405250810190610dbd919061317c565b949350505050565b600a546001600160a01b03163314610ddc57600080fd5b610de8600f6000612c1c565b610df4600e6000612c1c565b6000601555565b6015543360009081526010602052604090205410610e1857600080fd5b6107553361226b565b6015546001600160a01b0382166000908152601060205260408120549091118015610e6357506001600160a01b03821660009081526011602052604090205415155b15610f16576001600160a01b038216600090815260116020908152604080832054601554601090935292205480821115610f1257805b82811015610f1057600f8181548110610eb457610eb461311a565b9060005260206000200154600e8281548110610ed257610ed261311a565b906000526020600020015485610ee891906130dd565b610ef29190613195565b610efc90866130f4565b945080610f0881613146565b915050610e99565b505b5050505b919050565b600080610f2733611318565b60085460405163e6f1f73d60e01b815260048101869052600360248201529192506001600160a01b031690600090829063e6f1f73d90604401600060405180830381865afa158015610f7d573d6000803e3d6000fd5b505050506040513d6000823e601f3d908101601f19168201604052610fa5919081019061322b565b90508060e001518311610fb757600080fd5b8060200151610fc557600080fd5b604051637638fc6d60e01b8152336004820152600060248201819052604482018790526064820181905260848201819052906001600160a01b03841690637638fc6d9060a4016020604051808303816000875af115801561102a573d6000803e3d6000fd5b505050506040513d601f19601f8201168201806040525081019061104e919061317c565b60e0830151909150600081900361106457600080fd5b8061106e33611318565b1161107857600080fd5b600260005260126020527f8e1fee8c88a9e04123b21e90cae2727a7715bf522a1e46eb5934ccd05203a6b25460ff16156110f2576006546110c2906001600160a01b031682612a53565b60408051828152602081018390529081018290526000805160206134028339815191529060600160405180910390a15b6110fc33826123e0565b5095945050505050565b6007546001600160a01b03168161111c57600080fd5b6040516331a9108f60e11b81526004810184905233906001600160a01b03831690636352211e90602401602060405180830381865afa158015611163573d6000803e3d6000fd5b505050506040513d601f19601f82011682018060405250810190611187919061315f565b6001600160a01b03161461119a57600080fd5b600b54604051630afda41360e41b8152600481018590526001600160a01b0383169063afda41309060240161016060405180830381865afa1580156111e3573d6000803e3d6000fd5b505050506040513d601f19601f82011682018060405250810190611207919061331e565b608001511461121557600080fd5b6040516334610a8f60e11b815260048101849052602481018390526001600160a01b038216906368c2151e906044016020604051808303816000875af1158015611263573d6000803e3d6000fd5b505050506040513d601f19601f82011682018060405250810190611287919061317c565b60011461129357600080fd5b816014600c0160008282546112a891906130f4565b909155505060215462093a80906112bf9042613107565b11156112ce576112ce33612880565b60408051338152602081018490526001918101919091527ff4d012fd2f7cf012e2924304024d2fcba8b56030caafdfafe555950932ccf92f906060015b60405180910390a1505050565b6001600160a01b031660009081526020819052604090205490565b6007546040516335313c2160e11b815233600482015260009182916001600160a01b03909116908190636a6278429060240160408051808303816000875af1158015611383573d6000803e3d6000fd5b505050506040513d601f19601f820116820180604052508101906113a791906133b1565b9093509150816113b657600080fd5b505090565b6007546014546001600160a01b039091169060ff1615156001146113de57600080fd5b6040516331a9108f60e11b81526004810183905233906001600160a01b03831690636352211e90602401602060405180830381865afa158015611425573d6000803e3d6000fd5b505050506040513d601f19601f82011682018060405250810190611449919061315f565b6001600160a01b03161461145c57600080fd5b6040516378f1eaef60e01b8152600481018390526001600160a01b038216906378f1eaef90602401600060405180830381600087803b15801561149e57600080fd5b505af11580156114b2573d6000803e3d6000fd5b505050505050565b33600090815260136020526040812054908190036114d757600080fd5b6000821180156114e75750600482105b6114f057600080fd5b816001036115835780600114806115075750806006145b806115125750806004145b8061151d5750806007145b61152657600080fd5b825160021461153457600080fd5b6000836000815181106115495761154961311a565b602002602001015190506000846001815181106115685761156861311a565b6020026020010151905061157c8282612a53565b5050505050565b8160020361160f57806002148061159a5750806004145b806115a55750806005145b806115b05750806007145b6115b957600080fd5b82516002146115c757600080fd5b6000836000815181106115dc576115dc61311a565b602002602001015190506000846001815181106115fb576115fb61311a565b6020026020010151905061157c82826123e0565b816003036116bb5780600314806116265750806005145b806116315750806006145b8061163c5750806007145b61164557600080fd5b825160031461165357600080fd5b6000836000815181106116685761166861311a565b602002602001015190506000846001815181106116875761168761311a565b602002602001015190506000856002815181106116a6576116a661311a565b602002602001015190506114b28383836126dc565b505050565b600a546001600160a01b031633146116d757600080fd5b8060236000815481106116ec576116ec61311a565b6000918252602090912060029091020180546001600160a01b0319166001600160a01b039290921691909117905550565b6117a860405180610200016040528060001515815260200160006001600160a01b0316815260200160008152602001600081526020016000815260200160008152602001600081526020016000815260200160008152602001600081526020016000815260200160008152602001600081526020016000815260200160008152602001600081525090565b50604080516102008101825260145460ff8116151582526001600160a01b036101009182900416602080840191909152601554938301939093526016546060830152601754608083015260185460a083015260195460c0830152601a5460e0830152601b5490820152601c54610120820152601d54610140820152601e54610160820152601f5461018082015290546101a08201526021546101c08201526022546101e082015290565b60606004805461059a9061308d565b600a546001600160a01b0316331461187857600080fd5b6001600160a01b03811660009081526011602052604090205480156118b25780601460090160008282546118ac9190613107565b90915550505b506015546001600160a01b03821660009081526010602090815260408083209390935560119052908120555b50565b600033816118ef828661203c565b9050838110156119545760405162461bcd60e51b815260206004820152602560248201527f45524332303a2064656372656173656420616c6c6f77616e63652062656c6f77604482015264207a65726f60d81b60648201526084015b60405180910390fd5b6119618286868403612147565b506001949350505050565b60095460009033906001600160a01b0390811690851603611a24576009546001600160a01b0316158015906119a25750600c5415155b15611a245760006103e8600c54856119ba91906130dd565b6119c49190613195565b905060008051602061340283398151915284826119e18183613107565b6040805193845260208401929092529082015260600160405180910390a1611a098185613107565b600654909450611a22906001600160a01b031682612a53565b505b61062b8185856126dc565b6008546040516331a9108f60e11b8152600481018490526001600160a01b039091169033908290636352211e90602401602060405180830381865afa158015611a7c573d6000803e3d6000fd5b505050506040513d601f19601f82011682018060405250810190611aa0919061315f565b6001600160a01b031614611ab357600080fd5b6040516314f04eaf60e11b815260048101849052602481018390526000906001600160a01b038316906329e09d5e90604401602060405180830381865afa158015611b02573d6000803e3d6000fd5b505050506040513d601f19601f82011682018060405250810190611b26919061317c565b905080611b3233611318565b11611b3c57600080fd5b611b4633826123e0565b600360005260126020527f0f36ad39aee03e7108cc48f54934702a5f0d4066f10344cebf8198978d86976a5460ff1615611bc057600654611b90906001600160a01b031682612a53565b60408051828152602081018390529081018290526000805160206134028339815191529060600160405180910390a15b60405163a5f6ef3760e01b815260048101859052602481018490523360448201526001600160a01b0383169063a5f6ef3790606401600060405180830381600087803b158015611c0f57600080fd5b505af1158015611c23573d6000803e3d6000fd5b5050505050505050565b600a546001600160a01b03163314611c4457600080fd5b82600003611c925781600081518110611c5f57611c5f61311a565b6020026020010151600960006101000a8154816001600160a01b0302191690836001600160a01b03160217905550611e2f565b82600103611cac57600d805460ff19166001179055611e2f565b82600203611cbe57600c819055611e2f565b82600303611dd75781600081518110611cd957611cd961311a565b6020026020010151600760006101000a8154816001600160a01b0302191690836001600160a01b0316021790555081600181518110611d1a57611d1a61311a565b6020026020010151600860006101000a8154816001600160a01b0302191690836001600160a01b0316021790555060076013600084600081518110611d6157611d6161311a565b60200260200101516001600160a01b03166001600160a01b031681526020019081526020016000208190555060076013600084600181518110611da657611da661311a565b60200260200101516001600160a01b03166001600160a01b0316815260200190815260200160002081905550611e2f565b82600403611e02576000818152601260205260409020805460ff19811660ff90911615179055611e2f565b82600503611e2f5760145460ff1615611e1d57611e1d613130565b6014805460ff19166001179055426021555b60408051848152602081018390527f824dda5d969e5ae3d1e50fdf9aa07dc49695f51f1b42782daba0862b55de7821910161130b565b6007546040516331a9108f60e11b8152600481018390526000916001600160a01b03169033908290636352211e90602401602060405180830381865afa158015611eb3573d6000803e3d6000fd5b505050506040513d601f19601f82011682018060405250810190611ed7919061315f565b6001600160a01b031614611eea57600080fd5b600080826001600160a01b031663cb3d1d2986611f0633611318565b6040516001600160e01b031960e085901b1681526004810192909252602482015260440160408051808303816000875af1158015611f48573d6000803e3d6000fd5b505050506040513d601f19601f82011682018060405250810190611f6c91906133dd565b9150915081600003611f7d57600080fd5b81611f8733611318565b11611f9157600080fd5b600160005260126020527f71a67924699a20698523213e55fe499d539379d7769cd5567e2c45d583f815a35460ff161561200b57600654611fdb906001600160a01b031683612a53565b60408051838152602081018490529081018390526000805160206134028339815191529060600160405180910390a15b610dbd33836123e0565b6000816000036120325750506008546001600160a01b0316151590565b5050602154151590565b6001600160a01b03918216600090815260016020908152604080832093909416825291909152205490565b600061207b82670de0b6b3a76400006130dd565b905080670de0b6b3a7640000111561209257600080fd5b336000908152601160205260409020548111156120ae57600080fd5b6120b73361226b565b80601460090160008282546120cc9190613107565b909155505033600090815260116020526040812080548392906120f0908490613107565b909155506120ff905081612512565b905061210b3382612a53565b604080518381523360208201527f4ac743692c9ced0a3f0052fb9917c0856b6b12671016afe41b649643a89b1ad5910160405180910390a15050565b6001600160a01b0383166121a95760405162461bcd60e51b8152602060048201526024808201527f45524332303a20617070726f76652066726f6d20746865207a65726f206164646044820152637265737360e01b606482015260840161194b565b6001600160a01b03821661220a5760405162461bcd60e51b815260206004820152602260248201527f45524332303a20617070726f766520746f20746865207a65726f206164647265604482015261737360f01b606482015260840161194b565b6001600160a01b0383811660008181526001602090815260408083209487168084529482529182902085905590518481527f8c5be1e5ebec7d5bd14f71427d1e84f3dd0314c0f7b2291e5b200ac8c7c3b925910160405180910390a3505050565b6015546001600160a01b03821660009081526010602052604090205411156122ba576015546001600160a01b039091166000908152601060209081526040808320939093556011905290812055565b6015546001600160a01b0382166000908152601060205260409020541080156122fa57506001600160a01b03811660009081526011602052604090205415155b156118de576001600160a01b03811660009081526011602090815260408083205460155460109093529083205490919080821161233657600080fd5b805b828110156123af57600f81815481106123535761235361311a565b9060005260206000200154600e82815481106123715761237161311a565b90600052602060002001548561238791906130dd565b6123919190613195565b61239b90866130f4565b9450806123a781613146565b915050612338565b506123ba3385612a53565b50506015546001600160a01b039093166000908152601060205260409020929092555050565b6001600160a01b0382166124405760405162461bcd60e51b815260206004820152602160248201527f45524332303a206275726e2066726f6d20746865207a65726f206164647265736044820152607360f81b606482015260840161194b565b6001600160a01b038216600090815260208190526040902054818110156124b45760405162461bcd60e51b815260206004820152602260248201527f45524332303a206275726e20616d6f756e7420657863656564732062616c616e604482015261636560f01b606482015260840161194b565b6001600160a01b0383166000818152602081815260408083208686039055600280548790039055518581529192917fddf252ad1be2c89b69c2b068fc378daa952ba7f163c4a11628f55a4df523b3ef910160405180910390a3505050565b6000806103e861252384604b6130dd565b61252d9190613195565b90506125398184613107565b6000805260126020527f7e7fa33969761a458e04f477e039a608702b4f924981d6653935a8319a08ad7b5490935060ff16156125e8576000606461257e8360056130dd565b6125889190613195565b6006549091506125a1906001600160a01b031682612a53565b60008051602061340283398151915282826125bc8183613107565b6040805193845260208401929092529082015260600160405180910390a16125e48183613107565b9150505b601d54600f906125f99085906130f4565b81546001818101845560009384526020842090910191909155600e805480830182559083527fbb7b4a454dc3493923482f07822329ed19e8244eff582cc204f8554c3620c3fd0183905560158054919290916126569084906130f4565b90915550929392505050565b600061266e848461203c565b905060001981146126d657818110156126c95760405162461bcd60e51b815260206004820152601d60248201527f45524332303a20696e73756666696369656e7420616c6c6f77616e6365000000604482015260640161194b565b6126d68484848403612147565b50505050565b6001600160a01b0383166127405760405162461bcd60e51b815260206004820152602560248201527f45524332303a207472616e736665722066726f6d20746865207a65726f206164604482015264647265737360d81b606482015260840161194b565b6001600160a01b0382166127a25760405162461bcd60e51b815260206004820152602360248201527f45524332303a207472616e7366657220746f20746865207a65726f206164647260448201526265737360e81b606482015260840161194b565b6001600160a01b0383166000908152602081905260409020548181101561281a5760405162461bcd60e51b815260206004820152602660248201527f45524332303a207472616e7366657220616d6f756e7420657863656564732062604482015265616c616e636560d01b606482015260840161194b565b6001600160a01b03848116600081815260208181526040808320878703905593871680835291849020805487019055925185815290927fddf252ad1be2c89b69c2b068fc378daa952ba7f163c4a11628f55a4df523b3ef910160405180910390a36126d6565b600654601a54612899916001600160a01b031690612a53565b6006546005546128d6916001600160a01b0390811691166103e86128bc83611318565b6128c79060646130dd565b6128d19190613195565b6126dc565b6128de612b12565b6018546000036128f357601b54601c55612907565b601954601c546129039190613107565b601c555b6001600b600082825461291a91906130f4565b9091555050602054601c5461292f9190613195565b601f55426021556000602055601754601511156129625760016014600401600082825461295c91906130f4565b90915550505b60185460341015612a015760016014600301600082825461298391906130f4565b90915550506000601855601b54600a9061299e9060076130dd565b6129a89190613195565b601b819055603490600a906129be9060076130dd565b6129c89190613195565b601b546129d59190613107565b6129df9190613195565b601955601a54600a906129f39060076130dd565b6129fd9190613195565b601a555b612a14816802b5e3af16b1880000612a53565b6040516001600160a01b03821681527f162f46783fcc741c289a7af5bd16474ace09d7e8a9d5fe1ac0d37b12afc0ccac9060200160405180910390a150565b6001600160a01b038216612aa95760405162461bcd60e51b815260206004820152601f60248201527f45524332303a206d696e7420746f20746865207a65726f206164647265737300604482015260640161194b565b8060026000828254612abb91906130f4565b90915550506001600160a01b038216600081815260208181526040808320805486019055518481527fddf252ad1be2c89b69c2b068fc378daa952ba7f163c4a11628f55a4df523b3ef910160405180910390a35050565b60006023805480602002602001604051908101604052809291908181526020016000905b82821015612b7e576000848152602090819020604080518082019091526002850290910180546001600160a01b03168252600190810154828401529083529092019101612b36565b505082516006549394509260009250612ba091506001600160a01b0316611318565b905060005b828110156126d6576006548451612c0a916001600160a01b031690869084908110612bd257612bd261311a565b6020026020010151600001516103e8878581518110612bf357612bf361311a565b602002602001015160200151866128c791906130dd565b80612c1481613146565b915050612ba5565b50805460008255906000526020600020908101906118de91905b80821115612c4a5760008155600101612c36565b5090565b6001600160a01b03811681146118de57600080fd5b600060208284031215612c7557600080fd5b813561072e81612c4e565b60005b83811015612c9b578181015183820152602001612c83565b50506000910152565b6020815260008251806020840152612cc3816040850160208701612c80565b601f01601f19169190910160400192915050565b60008060408385031215612cea57600080fd5b8235612cf581612c4e565b946020939093013593505050565b600060208284031215612d1557600080fd5b5035919050565b600080600060608486031215612d3157600080fd5b8335612d3c81612c4e565b92506020840135612d4c81612c4e565b929592945050506040919091013590565b600080600060608486031215612d7257600080fd5b8335612d7d81612c4e565b95602085013595506040909401359392505050565b60008060408385031215612da557600080fd5b50508035926020909101359150565b634e487b7160e01b600052604160045260246000fd5b604051610160810167ffffffffffffffff81118282101715612dee57612dee612db4565b60405290565b604051601f8201601f1916810167ffffffffffffffff81118282101715612e1d57612e1d612db4565b604052919050565b600067ffffffffffffffff821115612e3f57612e3f612db4565b5060051b60200190565b60008060408385031215612e5c57600080fd5b823567ffffffffffffffff811115612e7357600080fd5b8301601f81018513612e8457600080fd5b80356020612e99612e9483612e25565b612df4565b82815260059290921b83018101918181019088841115612eb857600080fd5b938201935b83851015612ed657843582529382019390820190612ebd565b98969091013596505050505050565b81511515815261020081016020830151612f0a60208401826001600160a01b03169052565b5060408381015190830152606080840151908301526080808401519083015260a0808401519083015260c0808401519083015260e08084015190830152610100808401519083015261012080840151908301526101408084015190830152610160808401519083015261018080840151908301526101a080840151908301526101c080840151908301526101e092830151929091019190915290565b600080600060608486031215612fbb57600080fd5b8335925060208085013567ffffffffffffffff811115612fda57600080fd5b8501601f81018713612feb57600080fd5b8035612ff9612e9482612e25565b81815260059190911b8201830190838101908983111561301857600080fd5b928401925b8284101561303f57833561303081612c4e565b8252928401929084019061301d565b96999698505050506040949094013593505050565b6000806040838503121561306757600080fd5b823561307281612c4e565b9150602083013561308281612c4e565b809150509250929050565b600181811c908216806130a157607f821691505b6020821081036130c157634e487b7160e01b600052602260045260246000fd5b50919050565b634e487b7160e01b600052601160045260246000fd5b8082028115828204841417610631576106316130c7565b80820180821115610631576106316130c7565b81810381811115610631576106316130c7565b634e487b7160e01b600052603260045260246000fd5b634e487b7160e01b600052600160045260246000fd5b600060018201613158576131586130c7565b5060010190565b60006020828403121561317157600080fd5b815161072e81612c4e565b60006020828403121561318e57600080fd5b5051919050565b6000826131b257634e487b7160e01b600052601260045260246000fd5b500490565b600082601f8301126131c857600080fd5b815167ffffffffffffffff8111156131e2576131e2612db4565b6131f5601f8201601f1916602001612df4565b81815284602083860101111561320a57600080fd5b610dbd826020830160208701612c80565b80518015158114610f1657600080fd5b60006020828403121561323d57600080fd5b815167ffffffffffffffff8082111561325557600080fd5b90830190610160828603121561326a57600080fd5b613272612dca565b82518281111561328157600080fd5b61328d878286016131b7565b82525061329c6020840161321b565b60208201526132ad6040840161321b565b60408201526132be6060840161321b565b60608201526132cf6080840161321b565b608082015260a0838101519082015260c0808401519082015260e08084015190820152610100808401519082015261012080840151908201526101409283015192810192909252509392505050565b6000610160828403121561333157600080fd5b613339612dca565b825181526020830151602082015260408301516040820152606083015160608201526080830151608082015260a083015160a082015260c083015160c082015260e083015160e08201526101008084015181830152506101208084015181830152506101408084015181830152508091505092915050565b600080604083850312156133c457600080fd5b825191506133d46020840161321b565b90509250929050565b600080604083850312156133f057600080fd5b50508051602090910151909290915056fe54f9cdcb69d3aae815960ef5d12eea3e419f8679c6f1f4f84b7c73f98bf309aaa264697066735822122093b5be33fe800b2c6cff267ba36dd026e8d569cd2ffdd35506b683854bdb0d6e64736f6c63430008110033",
  "linkReferences": {},
  "deployedLinkReferences": {}
}