{
  "_format": "hh-sol-artifact-1",
  "contractName": "VertigoProperty",
  "sourceName": "contracts/VertigoProperty.sol",
  "abi": [
    {
      "inputs": [],
      "stateMutability": "nonpayable",
      "type": "constructor"
    },
    {
      "anonymous": false,
      "inputs": [
        {
          "indexed": true,
          "internalType": "address",
          "name": "owner",
          "type": "address"
        },
        {
          "indexed": true,
          "internalType": "address",
          "name": "approved",
          "type": "address"
        },
        {
          "indexed": true,
          "internalType": "uint256",
          "name": "tokenId",
          "type": "uint256"
        }
      ],
      "name": "Approval",
      "type": "event"
    },
    {
      "anonymous": false,
      "inputs": [
        {
          "indexed": true,
          "internalType": "address",
          "name": "owner",
          "type": "address"
        },
        {
          "indexed": true,
          "internalType": "address",
          "name": "operator",
          "type": "address"
        },
        {
          "indexed": false,
          "internalType": "bool",
          "name": "approved",
          "type": "bool"
        }
      ],
      "name": "ApprovalForAll",
      "type": "event"
    },
    {
      "anonymous": false,
      "inputs": [
        {
          "indexed": true,
          "internalType": "address",
          "name": "from",
          "type": "address"
        },
        {
          "indexed": true,
          "internalType": "address",
          "name": "to",
          "type": "address"
        },
        {
          "indexed": true,
          "internalType": "uint256",
          "name": "tokenId",
          "type": "uint256"
        }
      ],
      "name": "Transfer",
      "type": "event"
    },
    {
      "anonymous": false,
      "inputs": [
        {
          "indexed": false,
          "internalType": "address",
          "name": "",
          "type": "address"
        },
        {
          "indexed": false,
          "internalType": "address",
          "name": "",
          "type": "address"
        }
      ],
      "name": "enabled",
      "type": "event"
    },
    {
      "anonymous": false,
      "inputs": [
        {
          "indexed": false,
          "internalType": "uint256",
          "name": "",
          "type": "uint256"
        }
      ],
      "name": "propertyCreated",
      "type": "event"
    },
    {
      "inputs": [],
      "name": "_owner",
      "outputs": [
        {
          "internalType": "address",
          "name": "",
          "type": "address"
        }
      ],
      "stateMutability": "view",
      "type": "function"
    },
    {
      "inputs": [
        {
          "internalType": "uint256",
          "name": "receiverProfileId",
          "type": "uint256"
        },
        {
          "internalType": "uint256",
          "name": "price",
          "type": "uint256"
        },
        {
          "internalType": "uint256",
          "name": "timeInDays",
          "type": "uint256"
        },
        {
          "internalType": "uint256",
          "name": "propertyId",
          "type": "uint256"
        }
      ],
      "name": "accept_rental_offer",
      "outputs": [],
      "stateMutability": "nonpayable",
      "type": "function"
    },
    {
      "inputs": [
        {
          "internalType": "address",
          "name": "to",
          "type": "address"
        },
        {
          "internalType": "uint256",
          "name": "tokenId",
          "type": "uint256"
        }
      ],
      "name": "approve",
      "outputs": [],
      "stateMutability": "nonpayable",
      "type": "function"
    },
    {
      "inputs": [
        {
          "internalType": "address",
          "name": "owner",
          "type": "address"
        }
      ],
      "name": "balanceOf",
      "outputs": [
        {
          "internalType": "uint256",
          "name": "",
          "type": "uint256"
        }
      ],
      "stateMutability": "view",
      "type": "function"
    },
    {
      "inputs": [],
      "name": "check_enabled",
      "outputs": [
        {
          "internalType": "bool",
          "name": "",
          "type": "bool"
        }
      ],
      "stateMutability": "view",
      "type": "function"
    },
    {
      "inputs": [
        {
          "internalType": "string",
          "name": "propertyName",
          "type": "string"
        },
        {
          "internalType": "uint256",
          "name": "basePrice",
          "type": "uint256"
        },
        {
          "internalType": "uint256",
          "name": "payBonus",
          "type": "uint256"
        },
        {
          "internalType": "bool",
          "name": "isVCashProperty",
          "type": "bool"
        },
        {
          "internalType": "bool",
          "name": "isDefaultProperty",
          "type": "bool"
        },
        {
          "internalType": "string",
          "name": "standardURI",
          "type": "string"
        },
        {
          "internalType": "string",
          "name": "premiumURI",
          "type": "string"
        }
      ],
      "name": "create_property",
      "outputs": [
        {
          "internalType": "uint256",
          "name": "",
          "type": "uint256"
        }
      ],
      "stateMutability": "nonpayable",
      "type": "function"
    },
    {
      "inputs": [
        {
          "internalType": "uint256",
          "name": "tokenId",
          "type": "uint256"
        }
      ],
      "name": "getApproved",
      "outputs": [
        {
          "internalType": "address",
          "name": "",
          "type": "address"
        }
      ],
      "stateMutability": "view",
      "type": "function"
    },
    {
      "inputs": [
        {
          "internalType": "uint256",
          "name": "propertyID",
          "type": "uint256"
        },
        {
          "internalType": "uint256",
          "name": "fullData",
          "type": "uint256"
        }
      ],
      "name": "get_property_array",
      "outputs": [
        {
          "internalType": "uint256[10]",
          "name": "",
          "type": "uint256[10]"
        }
      ],
      "stateMutability": "view",
      "type": "function"
    },
    {
      "inputs": [
        {
          "internalType": "uint256",
          "name": "propertyID",
          "type": "uint256"
        },
        {
          "internalType": "uint256",
          "name": "specialIndex",
          "type": "uint256"
        }
      ],
      "name": "get_property_struct",
      "outputs": [
        {
          "components": [
            {
              "internalType": "string",
              "name": "propertyName",
              "type": "string"
            },
            {
              "internalType": "bool",
              "name": "buyable",
              "type": "bool"
            },
            {
              "internalType": "bool",
              "name": "VCashProperty",
              "type": "bool"
            },
            {
              "internalType": "bool",
              "name": "incomeIsDelegated",
              "type": "bool"
            },
            {
              "internalType": "bool",
              "name": "defaultProperty",
              "type": "bool"
            },
            {
              "internalType": "uint256",
              "name": "index",
              "type": "uint256"
            },
            {
              "internalType": "uint256",
              "name": "payBonus",
              "type": "uint256"
            },
            {
              "internalType": "uint256",
              "name": "basePrice",
              "type": "uint256"
            },
            {
              "internalType": "uint256",
              "name": "buyLimit",
              "type": "uint256"
            },
            {
              "internalType": "uint256",
              "name": "level",
              "type": "uint256"
            },
            {
              "internalType": "uint256",
              "name": "owner",
              "type": "uint256"
            }
          ],
          "internalType": "struct PropertyStorage.Property",
          "name": "",
          "type": "tuple"
        }
      ],
      "stateMutability": "view",
      "type": "function"
    },
    {
      "inputs": [
        {
          "internalType": "uint256",
          "name": "propertyIndex",
          "type": "uint256"
        },
        {
          "internalType": "uint256",
          "name": "profileId",
          "type": "uint256"
        }
      ],
      "name": "get_user_property_upgrade_price",
      "outputs": [
        {
          "internalType": "uint256",
          "name": "price",
          "type": "uint256"
        }
      ],
      "stateMutability": "view",
      "type": "function"
    },
    {
      "inputs": [
        {
          "internalType": "address",
          "name": "owner",
          "type": "address"
        },
        {
          "internalType": "address",
          "name": "operator",
          "type": "address"
        }
      ],
      "name": "isApprovedForAll",
      "outputs": [
        {
          "internalType": "bool",
          "name": "",
          "type": "bool"
        }
      ],
      "stateMutability": "view",
      "type": "function"
    },
    {
      "inputs": [
        {
          "internalType": "address",
          "name": "propertyOwner",
          "type": "address"
        },
        {
          "internalType": "uint256",
          "name": "propertyId",
          "type": "uint256"
        },
        {
          "internalType": "uint256",
          "name": "price",
          "type": "uint256"
        },
        {
          "internalType": "uint256",
          "name": "timeInDays",
          "type": "uint256"
        },
        {
          "internalType": "uint256",
          "name": "senderProfileId",
          "type": "uint256"
        }
      ],
      "name": "make_rental_offer",
      "outputs": [],
      "stateMutability": "nonpayable",
      "type": "function"
    },
    {
      "inputs": [
        {
          "internalType": "address",
          "name": "recipient",
          "type": "address"
        },
        {
          "internalType": "uint256",
          "name": "profileId",
          "type": "uint256"
        },
        {
          "internalType": "uint256",
          "name": "propertyIndex",
          "type": "uint256"
        },
        {
          "internalType": "bool",
          "name": "VCash",
          "type": "bool"
        },
        {
          "internalType": "bool",
          "name": "defaultProperty",
          "type": "bool"
        }
      ],
      "name": "mint",
      "outputs": [
        {
          "internalType": "uint256",
          "name": "newId",
          "type": "uint256"
        }
      ],
      "stateMutability": "nonpayable",
      "type": "function"
    },
    {
      "inputs": [],
      "name": "minted",
      "outputs": [
        {
          "internalType": "uint256",
          "name": "",
          "type": "uint256"
        }
      ],
      "stateMutability": "view",
      "type": "function"
    },
    {
      "inputs": [
        {
          "internalType": "uint256",
          "name": "propertyIndex",
          "type": "uint256"
        },
        {
          "internalType": "string",
          "name": "newURI",
          "type": "string"
        },
        {
          "internalType": "bool",
          "name": "premium",
          "type": "bool"
        },
        {
          "internalType": "bool",
          "name": "VCashProperty",
          "type": "bool"
        }
      ],
      "name": "modify_URI",
      "outputs": [],
      "stateMutability": "nonpayable",
      "type": "function"
    },
    {
      "inputs": [
        {
          "internalType": "uint256",
          "name": "index",
          "type": "uint256"
        },
        {
          "internalType": "uint256",
          "name": "specialIndex",
          "type": "uint256"
        },
        {
          "internalType": "uint256",
          "name": "newValue",
          "type": "uint256"
        },
        {
          "internalType": "uint256",
          "name": "packedIndex",
          "type": "uint256"
        }
      ],
      "name": "modify_packed_property_struct",
      "outputs": [],
      "stateMutability": "nonpayable",
      "type": "function"
    },
    {
      "inputs": [],
      "name": "name",
      "outputs": [
        {
          "internalType": "string",
          "name": "",
          "type": "string"
        }
      ],
      "stateMutability": "view",
      "type": "function"
    },
    {
      "inputs": [
        {
          "internalType": "uint256",
          "name": "tokenId",
          "type": "uint256"
        }
      ],
      "name": "ownerOf",
      "outputs": [
        {
          "internalType": "address",
          "name": "",
          "type": "address"
        }
      ],
      "stateMutability": "view",
      "type": "function"
    },
    {
      "inputs": [],
      "name": "profileContract",
      "outputs": [
        {
          "internalType": "address",
          "name": "",
          "type": "address"
        }
      ],
      "stateMutability": "view",
      "type": "function"
    },
    {
      "inputs": [
        {
          "internalType": "uint256",
          "name": "propertyId",
          "type": "uint256"
        }
      ],
      "name": "reclaim_rental_ownership",
      "outputs": [],
      "stateMutability": "nonpayable",
      "type": "function"
    },
    {
      "inputs": [
        {
          "internalType": "address",
          "name": "from",
          "type": "address"
        },
        {
          "internalType": "address",
          "name": "to",
          "type": "address"
        },
        {
          "internalType": "uint256",
          "name": "tokenId",
          "type": "uint256"
        }
      ],
      "name": "safeTransferFrom",
      "outputs": [],
      "stateMutability": "nonpayable",
      "type": "function"
    },
    {
      "inputs": [
        {
          "internalType": "address",
          "name": "from",
          "type": "address"
        },
        {
          "internalType": "address",
          "name": "to",
          "type": "address"
        },
        {
          "internalType": "uint256",
          "name": "tokenId",
          "type": "uint256"
        },
        {
          "internalType": "bytes",
          "name": "data",
          "type": "bytes"
        }
      ],
      "name": "safeTransferFrom",
      "outputs": [],
      "stateMutability": "nonpayable",
      "type": "function"
    },
    {
      "inputs": [
        {
          "internalType": "address",
          "name": "operator",
          "type": "address"
        },
        {
          "internalType": "bool",
          "name": "approved",
          "type": "bool"
        }
      ],
      "name": "setApprovalForAll",
      "outputs": [],
      "stateMutability": "nonpayable",
      "type": "function"
    },
    {
      "inputs": [
        {
          "internalType": "address",
          "name": "vertigo",
          "type": "address"
        },
        {
          "internalType": "address",
          "name": "profile",
          "type": "address"
        }
      ],
      "name": "set_periphery_contracts",
      "outputs": [],
      "stateMutability": "nonpayable",
      "type": "function"
    },
    {
      "inputs": [
        {
          "internalType": "bytes4",
          "name": "interfaceId",
          "type": "bytes4"
        }
      ],
      "name": "supportsInterface",
      "outputs": [
        {
          "internalType": "bool",
          "name": "",
          "type": "bool"
        }
      ],
      "stateMutability": "view",
      "type": "function"
    },
    {
      "inputs": [],
      "name": "symbol",
      "outputs": [
        {
          "internalType": "string",
          "name": "",
          "type": "string"
        }
      ],
      "stateMutability": "view",
      "type": "function"
    },
    {
      "inputs": [
        {
          "internalType": "uint256",
          "name": "tokenId",
          "type": "uint256"
        },
        {
          "internalType": "bool",
          "name": "defaultProperty",
          "type": "bool"
        }
      ],
      "name": "tokenURI",
      "outputs": [
        {
          "internalType": "string",
          "name": "",
          "type": "string"
        }
      ],
      "stateMutability": "view",
      "type": "function"
    },
    {
      "inputs": [
        {
          "internalType": "uint256",
          "name": "tokenId",
          "type": "uint256"
        }
      ],
      "name": "tokenURI",
      "outputs": [
        {
          "internalType": "string",
          "name": "",
          "type": "string"
        }
      ],
      "stateMutability": "view",
      "type": "function"
    },
    {
      "inputs": [
        {
          "internalType": "address",
          "name": "from",
          "type": "address"
        },
        {
          "internalType": "address",
          "name": "to",
          "type": "address"
        },
        {
          "internalType": "uint256",
          "name": "tokenId",
          "type": "uint256"
        }
      ],
      "name": "transferFrom",
      "outputs": [],
      "stateMutability": "nonpayable",
      "type": "function"
    },
    {
      "inputs": [
        {
          "internalType": "uint256",
          "name": "profileId",
          "type": "uint256"
        },
        {
          "internalType": "uint256",
          "name": "propertyId",
          "type": "uint256"
        }
      ],
      "name": "transfer_default_property_ownership",
      "outputs": [],
      "stateMutability": "nonpayable",
      "type": "function"
    },
    {
      "inputs": [
        {
          "internalType": "address",
          "name": "recipient",
          "type": "address"
        },
        {
          "internalType": "uint256",
          "name": "propertyId",
          "type": "uint256"
        }
      ],
      "name": "transfer_property_ownership",
      "outputs": [
        {
          "internalType": "bool",
          "name": "",
          "type": "bool"
        }
      ],
      "stateMutability": "nonpayable",
      "type": "function"
    },
    {
      "inputs": [
        {
          "internalType": "uint256",
          "name": "propertyIndex",
          "type": "uint256"
        },
        {
          "internalType": "uint256",
          "name": "profileId",
          "type": "uint256"
        },
        {
          "internalType": "address",
          "name": "sender",
          "type": "address"
        }
      ],
      "name": "upgrade_property",
      "outputs": [],
      "stateMutability": "nonpayable",
      "type": "function"
    },
    {
      "inputs": [],
      "name": "vertigoContract",
      "outputs": [
        {
          "internalType": "address",
          "name": "",
          "type": "address"
        }
      ],
      "stateMutability": "view",
      "type": "function"
    },
    {
      "inputs": [
        {
          "internalType": "uint256",
          "name": "senderProfileId",
          "type": "uint256"
        },
        {
          "internalType": "address",
          "name": "propertyOwner",
          "type": "address"
        }
      ],
      "name": "view_rental_offers",
      "outputs": [
        {
          "components": [
            {
              "internalType": "uint256",
              "name": "priceVert",
              "type": "uint256"
            },
            {
              "internalType": "uint256",
              "name": "dayCount",
              "type": "uint256"
            },
            {
              "internalType": "uint256",
              "name": "propertyId",
              "type": "uint256"
            }
          ],
          "internalType": "struct VertigoProperty.RentalOffer",
          "name": "",
          "type": "tuple"
        }
      ],
      "stateMutability": "view",
      "type": "function"
    }
  ],
  "bytecode": "0x60806040523480156200001157600080fd5b506040518060400160405280600881526020016750726f706572747960c01b8152506040518060400160405280600581526020016405650524f560dc1b815250816000908162000062919062000131565b50600162000071828262000131565b5050600f80546001600160a01b0319163317905550620001fd565b634e487b7160e01b600052604160045260246000fd5b600181811c90821680620000b757607f821691505b602082108103620000d857634e487b7160e01b600052602260045260246000fd5b50919050565b601f8211156200012c57600081815260208120601f850160051c81016020861015620001075750805b601f850160051c820191505b81811015620001285782815560010162000113565b5050505b505050565b81516001600160401b038111156200014d576200014d6200008c565b62000165816200015e8454620000a2565b84620000de565b602080601f8311600181146200019d5760008415620001845750858301515b600019600386901b1c1916600185901b17855562000128565b600085815260208120601f198616915b82811015620001ce57888601518255948401946001909101908401620001ad565b5085821015620001ed5787850151600019600388901b60f8161c191681555b5050505050600190811b01905550565b613a70806200020d6000396000f3fe608060405234801561001057600080fd5b50600436106102065760003560e01c806395d89b411161011a578063bccf3529116100ad578063e1beb6a91161007c578063e1beb6a91461048b578063e6f1f73d1461049e578063e985e9c5146104be578063e9c63014146104fa578063ef6d016c1461050d57600080fd5b8063bccf35291461041d578063c87b56dd14610430578063da72953c14610443578063dd48920e1461047857600080fd5b8063a5f6ef37116100e9578063a5f6ef37146103d1578063b1c7bf6a146103e4578063b2bdfa7b146103f7578063b88d4fde1461040a57600080fd5b806395d89b41146103905780639ba4209514610398578063a22cb465146103ab578063a3974b21146103be57600080fd5b8063301a32601161019d5780636352211e1161016c5780636352211e14610324578063706cbb311461033757806370a08231146103575780637638fc6d1461036a57806382585e531461037d57600080fd5b8063301a3260146102e257806342842e0e146102f55780634a72fca8146103085780634f02c4201461031b57600080fd5b806318ae4b60116101d957806318ae4b601461028857806323b872dd1461029b578063283cc9f3146102ae57806329e09d5e146102c157600080fd5b806301ffc9a71461020b57806306fdde0314610233578063081812fc14610248578063095ea7b314610273575b600080fd5b61021e610219366004612e5c565b610520565b60405190151581526020015b60405180910390f35b61023b610572565b60405161022a9190612ec9565b61025b610256366004612edc565b610604565b6040516001600160a01b03909116815260200161022a565b610286610281366004612f0a565b61062b565b005b610286610296366004612f36565b610745565b6102866102a9366004612f7a565b6107ef565b6102866102bc366004612fbb565b610820565b6102d46102cf366004612fed565b61084a565b60405190815260200161022a565b61023b6102f0366004613024565b61096b565b610286610303366004612f7a565b610b22565b610286610316366004612edc565b610b3d565b6102d460105481565b61025b610332366004612edc565b610d24565b61034a610345366004612fed565b610d84565b60405161022a9190613050565b6102d4610365366004613082565b610e3f565b6102d461037836600461309f565b610ec5565b600d546001600160a01b0316151561021e565b61023b611073565b6102866103a63660046131ce565b611082565b6102866103b9366004613236565b6110c8565b600e5461025b906001600160a01b031681565b6102866103df366004613262565b6110d7565b6102866103f2366004612fed565b611475565b600f5461025b906001600160a01b031681565b61028661041836600461329b565b611565565b61028661042b366004612fbb565b611597565b61023b61043e366004612edc565b611887565b61045661045136600461331b565b6118fb565b604080518251815260208084015190820152918101519082015260600161022a565b600d5461025b906001600160a01b031681565b6102d461049936600461334b565b611969565b6104b16104ac366004612fed565b611d13565b60405161022a9190613408565b61021e6104cc3660046134bb565b6001600160a01b03918216600090815260056020908152604080832093909416825291909152205460ff1690565b6102866105083660046134bb565b612045565b61021e61051b366004612f0a565b6120ca565b60006001600160e01b031982166380ac58cd60e01b148061055157506001600160e01b03198216635b5e139f60e01b145b8061056c57506301ffc9a760e01b6001600160e01b03198316145b92915050565b606060008054610581906134e9565b80601f01602080910402602001604051908101604052809291908181526020018280546105ad906134e9565b80156105fa5780601f106105cf576101008083540402835291602001916105fa565b820191906000526020600020905b8154815290600101906020018083116105dd57829003601f168201915b5050505050905090565b600061060f82612125565b506000908152600460205260409020546001600160a01b031690565b600061063682610d24565b9050806001600160a01b0316836001600160a01b0316036106a85760405162461bcd60e51b815260206004820152602160248201527f4552433732313a20617070726f76616c20746f2063757272656e74206f776e656044820152603960f91b60648201526084015b60405180910390fd5b336001600160a01b03821614806106c457506106c481336104cc565b6107365760405162461bcd60e51b815260206004820152603d60248201527f4552433732313a20617070726f76652063616c6c6572206973206e6f7420746f60448201527f6b656e206f776e6572206f7220617070726f76656420666f7220616c6c000000606482015260840161069f565b6107408383612187565b505050565b846001600160a01b031661075885610d24565b6001600160a01b03161461076b57600080fd5b61016d821115801561077b575060015b61078457600080fd5b6107a860405180606001604052806000815260200160008152602001600081525090565b928352602080840192835260408085019586526000928352600c82528083206001600160a01b03909716835295905293909320905181559151600183015551600290910155565b6107f933826121f5565b6108155760405162461bcd60e51b815260040161069f90613523565b610740838383612274565b600f546001600160a01b0316331461083757600080fd5b610843848484846123e5565b5050505050565b600080610858846000611d13565b90508060e00151915080604001518015610873575080608001515b1561089a5761088a670de0b6b3a764000083613586565b915061089760068361359d565b91505b600e5460405163403f6a6760e01b8152600481018590526001600160a01b0390911690600090829063403f6a6790602401602060405180830381865afa1580156108e8573d6000803e3d6000fd5b505050506040513d601f19601f8201168201806040525081019061090c91906135bf565b905060006101f461091d8387613586565b610927919061359d565b905081603203610956576103e861093f866005613586565b610949919061359d565b61095390826135d8565b90505b61096081866135eb565b979650505050505050565b6000828152600260205260409020546060906001600160a01b031661098f57600080fd5b600061099c846000611d13565b60a081015160408201516101208301519293509091600a1485610a68576000838152600b602090815260408083208415158452909152902080546109df906134e9565b80601f0160208091040260200160405190810160405280929190818152602001828054610a0b906134e9565b8015610a585780601f10610a2d57610100808354040283529160200191610a58565b820191906000526020600020905b815481529060010190602001808311610a3b57829003601f168201915b505050505094505050505061056c565b6000838152600a6020908152604080832085151584528252808320841515845290915290208054610a98906134e9565b80601f0160208091040260200160405190810160405280929190818152602001828054610ac4906134e9565b8015610b115780601f10610ae657610100808354040283529160200191610b11565b820191906000526020600020905b815481529060010190602001808311610af457829003601f168201915b505050505094505050505092915050565b61074083838360405180602001604052806000815250611565565b610b4681610d24565b6001600160a01b0316336001600160a01b031614610b6357600080fd5b6000818152600960205260408120600101549003610b8057600080fd5b600081815260096020526040902060010154421015610b9e57600080fd5b6000610bab826000611d13565b600e5460808201519192506001600160a01b03169015610bca57600080fd5b816040015115610c645761014082015160c0830151604051637221661960e11b81526004810192909252602482015260016044820181905260648201526001600160a01b0382169063e442cc32906084016020604051808303816000875af1158015610c3a573d6000803e3d6000fd5b505050506040513d601f19601f82011682018060405250810190610c5e91906135bf565b50610cf0565b61014082015160c0830151604051637221661960e11b81526004810192909252602482015260006044820152600160648201526001600160a01b0382169063e442cc32906084016020604051808303816000875af1158015610cca573d6000803e3d6000fd5b505050506040513d601f19601f82011682018060405250810190610cee91906135bf565b505b610cfe8360008060096123e5565b50610d0d8360008060066123e5565b505050600090815260096020526040812060010155565b6000818152600260205260408120546001600160a01b03168061056c5760405162461bcd60e51b8152602060048201526018602482015277115490cdcc8c4e881a5b9d985b1a59081d1bdad95b88125160421b604482015260640161069f565b610d8c612dc5565b610d94612dc5565b60008315610da25783610db2565b6000858152600960205260409020545b6001600160801b038116835263ffffffff608082811c91909116602085015261ffff60a083811c8216604087015260ff60b085901c8116606088015260b885901c81169387019390935260c084811c84169187019190915260c884901c83169086015260d083901c90911660e085015260d882901c1661010084015260e81c610120830152509392505050565b60006001600160a01b038216610ea95760405162461bcd60e51b815260206004820152602960248201527f4552433732313a2061646472657373207a65726f206973206e6f7420612076616044820152683634b21037bbb732b960b91b606482015260840161069f565b506001600160a01b031660009081526003602052604090205490565b600e546000906001600160a01b03168215610f77576040516331a9108f60e11b8152600481018790526001600160a01b038089169190831690636352211e90602401602060405180830381865afa158015610f24573d6000803e3d6000fd5b505050506040513d601f19601f82011682018060405250810190610f489190613614565b6001600160a01b031614610f5b57600080fd5b600e546001600160a01b03163314610f7257600080fd5b610f8e565b600d546001600160a01b03163314610f8e57600080fd5b6010805492506001906000610fa383866135d8565b90915550839050610fd45760088581548110610fc157610fc16135fe565b906000526020600020906003020161100e565b83610fec5760078581548110610fc157610fc16135fe565b60068581548110610fff57610fff6135fe565b90600052602060002090600302015b6000838152600960205260409020815481556001808301549082015560028082019061103c9084018261367f565b50905050821561105f576000828152600960205260409020805460e888901b1790555b611069878361268b565b5095945050505050565b606060018054610581906134e9565b600f546001600160a01b0316331461109957600080fd5b6000848152600a602090815260408083208415158452825280832085151584529091529020610843848261375c565b6110d3338383612824565b5050565b600e546001600160a01b03166110ec84610d24565b6001600160a01b0316826001600160a01b03161461110957600080fd5b6040516331a9108f60e11b8152600481018490526001600160a01b03821690636352211e90602401602060405180830381865afa15801561114e573d6000803e3d6000fd5b505050506040513d601f19601f820116820180604052508101906111729190613614565b6001600160a01b0316826001600160a01b03161461118f57600080fd5b600d546001600160a01b031633146111a657600080fd5b60006111b3856000611d13565b9050600a816101200151106111c757600080fd5b608081015115156001146111da57600080fd5b60006111ff8260a0015183604001516111f45760026111f7565b60015b60ff16611d13565b905060006009836101200151101561122957600f8260c00151611222919061359d565b9050611230565b5060c08101515b6000818460c0015161124291906135d8565b90506112528860008360016123e5565b50611272886000866101200151600161126b91906135d8565b60076123e5565b50604051630afda41360e41b8152600481018890526000906001600160a01b0387169063afda41309060240161016060405180830381865afa1580156112bc573d6000803e3d6000fd5b505050506040513d601f19601f820116820180604052508101906112e09190613814565b9050866001600160a01b0316866001600160a01b0316636352211e8a6040518263ffffffff1660e01b815260040161131a91815260200190565b602060405180830381865afa158015611337573d6000803e3d6000fd5b505050506040513d601f19601f8201168201806040525081019061135b9190613614565b6001600160a01b03161461136e57600080fd5b6000838260e0015161138091906135d8565b60408051600380825260808201909252919250600091906020820160608036833701905050905089816000815181106113bb576113bb6135fe565b60200260200101818152505081816001815181106113db576113db6135fe565b6020026020010181815250506008816002815181106113fc576113fc6135fe565b6020908102919091010152604051633fc7027560e11b81526001600160a01b03891690637f8e04ea906114369084906002906004016138e2565b600060405180830381600087803b15801561145057600080fd5b505af1158015611464573d6000803e3d6000fd5b505050505050505050505050505050565b600e546040516331a9108f60e11b8152600481018490526001600160a01b03909116908190636352211e90602401602060405180830381865afa1580156114c0573d6000803e3d6000fd5b505050506040513d601f19601f820116820180604052508101906114e49190613614565b6001600160a01b0316336001600160a01b03161461150157600080fd5b61150a82610d24565b6001600160a01b0316330361151e57600080fd5b600061152b836000611d13565b9050838161014001511461153e57600080fd5b806080015161154c57600080fd5b61155f61155884610d24565b3385612274565b50505050565b61156f33836121f5565b61158b5760405162461bcd60e51b815260040161069f90613523565b61155f848484846128f2565b6000848152600c6020908152604080832033845282529182902082516060810184528154815260018201549281018390526002909101549281019290925283146115e057600080fd5b805184146115ed57600080fd5b818160400151146115fd57600080fd5b61160682610d24565b6001600160a01b0316336001600160a01b03161461162357600080fd5b6000828152600960205260409020600101541561163f57600080fd5b600d54600e546040516331a9108f60e11b8152600481018890526001600160a01b0392831692909116906000908290636352211e90602401602060405180830381865afa158015611694573d6000803e3d6000fd5b505050506040513d601f19601f820116820180604052508101906116b89190613614565b90506001600160a01b038116336116d789670de0b6b3a7640000613586565b6040516370a0823160e01b81526001600160a01b0384811660048301528716906370a0823190602401602060405180830381865afa15801561171d573d6000803e3d6000fd5b505050506040513d601f19601f8201168201806040525081019061174191906135bf565b101561174c57600080fd5b60408051600380825260808201909252600091602082016060803683370190505090508281600081518110611783576117836135fe565b60200260200101818152505081816001815181106117a3576117a36135fe565b60209081029190910101526117c08a670de0b6b3a7640000613586565b816002815181106117d3576117d36135fe565b6020908102919091010152604051633fc7027560e11b81526001600160a01b03871690637f8e04ea9061180d9084906003906004016138e2565b600060405180830381600087803b15801561182757600080fd5b505af115801561183b573d6000803e3d6000fd5b5050505061184d87604001518c612925565b5061185b8962015180613586565b61186590426135d8565b6000988952600960205260409098206001019790975550505050505050505050565b606061189282612125565b60006118a960408051602081019091526000815290565b905060008151116118c957604051806020016040528060008152506118f4565b806118d384612ad4565b6040516020016118e4929190613904565b6040516020818303038152906040525b9392505050565b61191f60405180606001604052806000815260200160008152602001600081525090565b506000918252600c602090815260408084206001600160a01b0393909316845291815291819020815160608101835281548152600182015493810193909352600201549082015290565b600f546000906001600160a01b0316331461198357600080fd5b600084611992576008546119a3565b8561199f576007546119a3565b6006545b90506119c960405180606001604052806000815260200160008152602001606081525090565b604081018a905260008680156119dc5750875b6119f7576119f28a670de0b6b3a7640000613586565b6119f9565b895b60808a901b1760a084901b17905060b087611a15576000611a18565b60015b60ff16901b1760b888611a2c576000611a2f565b60015b60ff16901b178082528615611aa0576000838152600a602090815260408083208b1515845282528083208380529091529020611a6b878261375c565b506000838152600a602090815260408083208b151584528252808320600184529091529020611a9a868261375c565b50611aea565b6000838152600b602090815260408083208380529091529020611ac3878261375c565b506000838152600b60209081526040808320600184529091529020611ae8868261375c565b505b86611b925760088054600181018255600091909152825160039091027ff3f7a9fe364faab93b216da50a3214154f22a0a2b415b23a84c8169e8b636ee3810191825560208401517ff3f7a9fe364faab93b216da50a3214154f22a0a2b415b23a84c8169e8b636ee482015560408401518492917ff3f7a9fe364faab93b216da50a3214154f22a0a2b415b23a84c8169e8b636ee50190611b8a908261375c565b505050611cd1565b87611c325760078054600181018255600091909152825160039091027fa66cc928b5edb82af9bd49922954155ab7b0942694bea4ce44661d9a8736c688810191825560208401517fa66cc928b5edb82af9bd49922954155ab7b0942694bea4ce44661d9a8736c68982015560408401518492917fa66cc928b5edb82af9bd49922954155ab7b0942694bea4ce44661d9a8736c68a0190611b8a908261375c565b60068054600181018255600091909152825160039091027ff652222313e28459528d920b65115c16c04f3efc82aaedc97be59f3f377c0d3f810191825560208401517ff652222313e28459528d920b65115c16c04f3efc82aaedc97be59f3f377c0d4082015560408401518492917ff652222313e28459528d920b65115c16c04f3efc82aaedc97be59f3f377c0d410190611ccd908261375c565b5050505b6040518381527f9e9103598f1194f0d5c4705771c6afe1a543e598a28abc6327def9305234ca2e9060200160405180910390a150909998505050505050505050565b611d1b612de4565b611d23612de4565b611d4760405180606001604052806000815260200160008152602001606081525090565b83600003611e1a57600960008681526020019081526020016000206040518060600160405290816000820154815260200160018201548152602001600282018054611d91906134e9565b80601f0160208091040260200160405190810160405280929190818152602001828054611dbd906134e9565b8015611e0a5780601f10611ddf57610100808354040283529160200191611e0a565b820191906000526020600020905b815481529060010190602001808311611ded57829003601f168201915b5050505050815250509050611f62565b83600103611e725760068581548110611e3557611e356135fe565b90600052602060002090600302016040518060600160405290816000820154815260200160018201548152602001600282018054611d91906134e9565b83600203611e8d5760078581548110611e3557611e356135fe565b60088581548110611ea057611ea06135fe565b90600052602060002090600302016040518060600160405290816000820154815260200160018201548152602001600282018054611edd906134e9565b80601f0160208091040260200160405190810160405280929190818152602001828054611f09906134e9565b8015611f565780601f10611f2b57610100808354040283529160200191611f56565b820191906000526020600020905b815481529060010190602001808311611f3957829003601f168201915b50505050508152505090505b6040810151825280516001600160801b03811660e0840152608081901c63ffffffff1660c084015260a081811c61ffff169084015260b081901c60ff16600114611fad576000611fb0565b60015b15156080840152600160ff60b883901c1614611fcd576000611fd0565b60015b15156040840152600160ff60c083901c1614611fed576000611ff0565b60015b15156020840152600160ff60c883901c161461200d576000612010565b60015b1515606084015260d081901c60ff1661012084015260d881901c61ffff1661010084015260e81c610140830152509392505050565b600f546001600160a01b0316331461205c57600080fd5b600d80546001600160a01b038481166001600160a01b03199283168117909355600e80549185169190921681179091556040805192835260208301919091527fbb58a2433ff5db65ac53f35deaec0dca2fc87559f0e567cbae6e2145543029c2910160405180910390a15050565b6000806120d8836000611d13565b6080810151909150156120ea57600080fd5b6120f383610d24565b6001600160a01b0316336001600160a01b03161461211057600080fd5b61211b338585612274565b5060019392505050565b6000818152600260205260409020546001600160a01b03166121845760405162461bcd60e51b8152602060048201526018602482015277115490cdcc8c4e881a5b9d985b1a59081d1bdad95b88125160421b604482015260640161069f565b50565b600081815260046020526040902080546001600160a01b0319166001600160a01b03841690811790915581906121bc82610d24565b6001600160a01b03167f8c5be1e5ebec7d5bd14f71427d1e84f3dd0314c0f7b2291e5b200ac8c7c3b92560405160405180910390a45050565b60008061220183610d24565b9050806001600160a01b0316846001600160a01b0316148061224857506001600160a01b0380821660009081526005602090815260408083209388168352929052205460ff165b8061226c5750836001600160a01b031661226184610604565b6001600160a01b0316145b949350505050565b826001600160a01b031661228782610d24565b6001600160a01b0316146122ad5760405162461bcd60e51b815260040161069f90613933565b6001600160a01b03821661230f5760405162461bcd60e51b8152602060048201526024808201527f4552433732313a207472616e7366657220746f20746865207a65726f206164646044820152637265737360e01b606482015260840161069f565b61231c8383836001612b67565b826001600160a01b031661232f82610d24565b6001600160a01b0316146123555760405162461bcd60e51b815260040161069f90613933565b600081815260046020908152604080832080546001600160a01b03199081169091556001600160a01b0387811680865260038552838620805460001901905590871680865283862080546001019055868652600290945282852080549092168417909155905184937fddf252ad1be2c89b69c2b068fc378daa952ba7f163c4a11628f55a4df523b3ef91a4505050565b600081600003612408576001600160801b0383111561240357600080fd5b612467565b81600114806124175750816009145b1561242d5763ffffffff83111561240357600080fd5b816002148061243c5750816008145b156124505761ffff83111561240357600080fd5b60088210156124675760ff83111561246757600080fd5b61246f612dc5565b8460000361248957612482866000610d84565b905061254d565b6000856001146124d857856002146124c557600887815481106124ae576124ae6135fe565b9060005260206000209060030201600001546124fe565b600787815481106124ae576124ae6135fe565b600687815481106124eb576124eb6135fe565b9060005260206000209060030201600001545b90508060000361251057612510613978565b8560010361252a57612523600082610d84565b915061254b565b8560020361253d57612523600082610d84565b612548600082610d84565b91505b505b838184600a8110612560576125606135fe565b6020020152600081816020020151905060808260016020020151901b1760a08260026020020151901b1760b08260036020020151901b1760b88260046020020151901b1760c08260056020020151901b1760c88260066020020151901b1760d08260076020020151901b1760d88260086020020151901b1760e88260096020020151901b176000869003612604576000878152600960205260409020819055612680565b85600103612636578060068881548110612620576126206135fe565b6000918252602090912060039091020155612680565b85600203612652578060078881548110612620576126206135fe565b8560030361268057806008888154811061266e5761266e6135fe565b60009182526020909120600390910201555b509195945050505050565b6001600160a01b0382166126e15760405162461bcd60e51b815260206004820181905260248201527f4552433732313a206d696e7420746f20746865207a65726f2061646472657373604482015260640161069f565b6000818152600260205260409020546001600160a01b0316156127465760405162461bcd60e51b815260206004820152601c60248201527f4552433732313a20746f6b656e20616c7265616479206d696e74656400000000604482015260640161069f565b612754600083836001612b67565b6000818152600260205260409020546001600160a01b0316156127b95760405162461bcd60e51b815260206004820152601c60248201527f4552433732313a20746f6b656e20616c7265616479206d696e74656400000000604482015260640161069f565b6001600160a01b038216600081815260036020908152604080832080546001019055848352600290915280822080546001600160a01b0319168417905551839291907fddf252ad1be2c89b69c2b068fc378daa952ba7f163c4a11628f55a4df523b3ef908290a45050565b816001600160a01b0316836001600160a01b0316036128855760405162461bcd60e51b815260206004820152601960248201527f4552433732313a20617070726f766520746f2063616c6c657200000000000000604482015260640161069f565b6001600160a01b03838116600081815260056020908152604080832094871680845294825291829020805460ff191686151590811790915591519182527f17307eab39ab6107e8899845ad3d59bd9653f200f220920489ca2b5937696c31910160405180910390a3505050565b6128fd848484612274565b61290984848484612bef565b61155f5760405162461bcd60e51b815260040161069f9061398e565b600080612933846000611d13565b60808101519091501561294557600080fd5b600e546001600160a01b031661295a85610d24565b6001600160a01b0316336001600160a01b03161461297757600080fd5b816040015115612a185760c0820151604051637221661960e11b815260048101869052602481019190915260016044820152600060648201526001600160a01b0382169063e442cc32906084016020604051808303816000875af11580156129e3573d6000803e3d6000fd5b505050506040513d601f19601f82011682018060405250810190612a0791906135bf565b600114612a1357600080fd5b612aaa565b60c0820151604051637221661960e11b815260048101869052602481019190915260006044820181905260648201526001600160a01b0382169063e442cc32906084016020604051808303816000875af1158015612a7a573d6000803e3d6000fd5b505050506040513d601f19601f82011682018060405250810190612a9e91906135bf565b600114612aaa57600080fd5b612ab88560008660096123e5565b50612ac8856000600160066123e5565b50600195945050505050565b60606000612ae183612ced565b600101905060008167ffffffffffffffff811115612b0157612b016130f8565b6040519080825280601f01601f191660200182016040528015612b2b576020820181803683370190505b5090508181016020015b600019016f181899199a1a9b1b9c1cb0b131b232b360811b600a86061a8153600a8504945084612b3557509392505050565b600181111561155f576001600160a01b03841615612bad576001600160a01b03841660009081526003602052604081208054839290612ba79084906135eb565b90915550505b6001600160a01b0383161561155f576001600160a01b03831660009081526003602052604081208054839290612be49084906135d8565b909155505050505050565b60006001600160a01b0384163b15612ce557604051630a85bd0160e11b81526001600160a01b0385169063150b7a0290612c339033908990889088906004016139e0565b6020604051808303816000875af1925050508015612c6e575060408051601f3d908101601f19168201909252612c6b91810190613a1d565b60015b612ccb573d808015612c9c576040519150601f19603f3d011682016040523d82523d6000602084013e612ca1565b606091505b508051600003612cc35760405162461bcd60e51b815260040161069f9061398e565b805181602001fd5b6001600160e01b031916630a85bd0160e11b14905061226c565b50600161226c565b60008072184f03e93ff9f4daa797ed6e38ed64bf6a1f0160401b8310612d2c5772184f03e93ff9f4daa797ed6e38ed64bf6a1f0160401b830492506040015b6d04ee2d6d415b85acef81000000008310612d58576d04ee2d6d415b85acef8100000000830492506020015b662386f26fc100008310612d7657662386f26fc10000830492506010015b6305f5e1008310612d8e576305f5e100830492506008015b6127108310612da257612710830492506004015b60648310612db4576064830492506002015b600a831061056c5760010192915050565b604051806101400160405280600a906020820280368337509192915050565b604051806101600160405280606081526020016000151581526020016000151581526020016000151581526020016000151581526020016000815260200160008152602001600081526020016000815260200160008152602001600081525090565b6001600160e01b03198116811461218457600080fd5b600060208284031215612e6e57600080fd5b81356118f481612e46565b60005b83811015612e94578181015183820152602001612e7c565b50506000910152565b60008151808452612eb5816020860160208601612e79565b601f01601f19169290920160200192915050565b6020815260006118f46020830184612e9d565b600060208284031215612eee57600080fd5b5035919050565b6001600160a01b038116811461218457600080fd5b60008060408385031215612f1d57600080fd5b8235612f2881612ef5565b946020939093013593505050565b600080600080600060a08688031215612f4e57600080fd5b8535612f5981612ef5565b97602087013597506040870135966060810135965060800135945092505050565b600080600060608486031215612f8f57600080fd5b8335612f9a81612ef5565b92506020840135612faa81612ef5565b929592945050506040919091013590565b60008060008060808587031215612fd157600080fd5b5050823594602084013594506040840135936060013592509050565b6000806040838503121561300057600080fd5b50508035926020909101359150565b8035801515811461301f57600080fd5b919050565b6000806040838503121561303757600080fd5b823591506130476020840161300f565b90509250929050565b6101408101818360005b600a81101561307957815183526020928301929091019060010161305a565b50505092915050565b60006020828403121561309457600080fd5b81356118f481612ef5565b600080600080600060a086880312156130b757600080fd5b85356130c281612ef5565b945060208601359350604086013592506130de6060870161300f565b91506130ec6080870161300f565b90509295509295909350565b634e487b7160e01b600052604160045260246000fd5b604051610160810167ffffffffffffffff81118282101715613132576131326130f8565b60405290565b600067ffffffffffffffff80841115613153576131536130f8565b604051601f8501601f19908116603f0116810190828211818310171561317b5761317b6130f8565b8160405280935085815286868601111561319457600080fd5b858560208301376000602087830101525050509392505050565b600082601f8301126131bf57600080fd5b6118f483833560208501613138565b600080600080608085870312156131e457600080fd5b84359350602085013567ffffffffffffffff81111561320257600080fd5b61320e878288016131ae565b93505061321d6040860161300f565b915061322b6060860161300f565b905092959194509250565b6000806040838503121561324957600080fd5b823561325481612ef5565b91506130476020840161300f565b60008060006060848603121561327757600080fd5b8335925060208401359150604084013561329081612ef5565b809150509250925092565b600080600080608085870312156132b157600080fd5b84356132bc81612ef5565b935060208501356132cc81612ef5565b925060408501359150606085013567ffffffffffffffff8111156132ef57600080fd5b8501601f8101871361330057600080fd5b61330f87823560208401613138565b91505092959194509250565b6000806040838503121561332e57600080fd5b82359150602083013561334081612ef5565b809150509250929050565b600080600080600080600060e0888a03121561336657600080fd5b873567ffffffffffffffff8082111561337e57600080fd5b61338a8b838c016131ae565b985060208a0135975060408a013596506133a660608b0161300f565b95506133b460808b0161300f565b945060a08a01359150808211156133ca57600080fd5b6133d68b838c016131ae565b935060c08a01359150808211156133ec57600080fd5b506133f98a828b016131ae565b91505092959891949750929550565b6020815260008251610160806020850152613427610180850183612e9d565b9150602085015161343c604086018215159052565b5060408501518015156060860152506060850151801515608086015250608085015180151560a08601525060a085015160c085015260c085015160e085015260e0850151610100818187015280870151915050610120818187015280870151915050610140818187015280870151838701525050508091505092915050565b600080604083850312156134ce57600080fd5b82356134d981612ef5565b9150602083013561334081612ef5565b600181811c908216806134fd57607f821691505b60208210810361351d57634e487b7160e01b600052602260045260246000fd5b50919050565b6020808252602d908201527f4552433732313a2063616c6c6572206973206e6f7420746f6b656e206f776e6560408201526c1c881bdc88185c1c1c9bdd9959609a1b606082015260800190565b634e487b7160e01b600052601160045260246000fd5b808202811582820484141761056c5761056c613570565b6000826135ba57634e487b7160e01b600052601260045260246000fd5b500490565b6000602082840312156135d157600080fd5b5051919050565b8082018082111561056c5761056c613570565b8181038181111561056c5761056c613570565b634e487b7160e01b600052603260045260246000fd5b60006020828403121561362657600080fd5b81516118f481612ef5565b601f82111561074057600081815260208120601f850160051c810160208610156136585750805b601f850160051c820191505b8181101561367757828155600101613664565b505050505050565b81810361368a575050565b61369482546134e9565b67ffffffffffffffff8111156136ac576136ac6130f8565b6136c0816136ba84546134e9565b84613631565b6000601f8211600181146136f457600083156136dc5750848201545b600019600385901b1c1916600184901b178455610843565b600085815260209020601f19841690600086815260209020845b8381101561372e578286015482556001958601959091019060200161370e565b508583101561374c5781850154600019600388901b60f8161c191681555b5050505050600190811b01905550565b815167ffffffffffffffff811115613776576137766130f8565b613784816136ba84546134e9565b602080601f8311600181146137b957600084156137a15750858301515b600019600386901b1c1916600185901b178555613677565b600085815260208120601f198616915b828110156137e8578886015182559484019460019091019084016137c9565b508582101561374c57939096015160001960f8600387901b161c19169092555050600190811b01905550565b6000610160828403121561382757600080fd5b61382f61310e565b825181526020830151602082015260408301516040820152606083015160608201526080830151608082015260a083015160a082015260c083015160c082015260e083015160e08201526101008084015181830152506101208084015181830152506101408084015181830152508091505092915050565b600081518084526020808501945080840160005b838110156138d7578151875295820195908201906001016138bb565b509495945050505050565b6040815260006138f560408301856138a7565b90508260208301529392505050565b60008351613916818460208801612e79565b83519083019061392a818360208801612e79565b01949350505050565b60208082526025908201527f4552433732313a207472616e736665722066726f6d20696e636f72726563742060408201526437bbb732b960d91b606082015260800190565b634e487b7160e01b600052600160045260246000fd5b60208082526032908201527f4552433732313a207472616e7366657220746f206e6f6e20455243373231526560408201527131b2b4bb32b91034b6b83632b6b2b73a32b960711b606082015260800190565b6001600160a01b0385811682528416602082015260408101839052608060608201819052600090613a1390830184612e9d565b9695505050505050565b600060208284031215613a2f57600080fd5b81516118f481612e4656fea26469706673582212203af4a296c0cd2933edd2c280160ce7f9c19b0bf31c88ba7edc86365d4b693aa864736f6c63430008110033",
  "linkReferences": {},
  "deployedLinkReferences": {}
}