{
  "_format": "hh-sol-artifact-1",
  "contractName": "VertigoProfile",
  "sourceName": "contracts/VertigoProfile.sol",
  "abi": [
    {
      "inputs": [],
      "stateMutability": "nonpayable",
      "type": "constructor"
    },
    {
      "anonymous": false,
      "inputs": [
        {
          "indexed": true,
          "internalType": "address",
          "name": "owner",
          "type": "address"
        },
        {
          "indexed": true,
          "internalType": "address",
          "name": "approved",
          "type": "address"
        },
        {
          "indexed": true,
          "internalType": "uint256",
          "name": "tokenId",
          "type": "uint256"
        }
      ],
      "name": "Approval",
      "type": "event"
    },
    {
      "anonymous": false,
      "inputs": [
        {
          "indexed": true,
          "internalType": "address",
          "name": "owner",
          "type": "address"
        },
        {
          "indexed": true,
          "internalType": "address",
          "name": "operator",
          "type": "address"
        },
        {
          "indexed": false,
          "internalType": "bool",
          "name": "approved",
          "type": "bool"
        }
      ],
      "name": "ApprovalForAll",
      "type": "event"
    },
    {
      "anonymous": false,
      "inputs": [
        {
          "indexed": true,
          "internalType": "address",
          "name": "from",
          "type": "address"
        },
        {
          "indexed": true,
          "internalType": "address",
          "name": "to",
          "type": "address"
        },
        {
          "indexed": true,
          "internalType": "uint256",
          "name": "tokenId",
          "type": "uint256"
        }
      ],
      "name": "Transfer",
      "type": "event"
    },
    {
      "anonymous": false,
      "inputs": [
        {
          "indexed": false,
          "internalType": "uint256",
          "name": "amount",
          "type": "uint256"
        }
      ],
      "name": "VCashClaimed",
      "type": "event"
    },
    {
      "anonymous": false,
      "inputs": [
        {
          "indexed": false,
          "internalType": "address",
          "name": "user",
          "type": "address"
        },
        {
          "indexed": false,
          "internalType": "uint256",
          "name": "val",
          "type": "uint256"
        }
      ],
      "name": "Whitelist",
      "type": "event"
    },
    {
      "inputs": [],
      "name": "_mintedCount",
      "outputs": [
        {
          "internalType": "uint256",
          "name": "",
          "type": "uint256"
        }
      ],
      "stateMutability": "view",
      "type": "function"
    },
    {
      "inputs": [
        {
          "internalType": "address",
          "name": "to",
          "type": "address"
        },
        {
          "internalType": "uint256",
          "name": "tokenId",
          "type": "uint256"
        }
      ],
      "name": "approve",
      "outputs": [],
      "stateMutability": "nonpayable",
      "type": "function"
    },
    {
      "inputs": [
        {
          "internalType": "address",
          "name": "owner",
          "type": "address"
        }
      ],
      "name": "balanceOf",
      "outputs": [
        {
          "internalType": "uint256",
          "name": "",
          "type": "uint256"
        }
      ],
      "stateMutability": "view",
      "type": "function"
    },
    {
      "inputs": [
        {
          "internalType": "uint256",
          "name": "profileId",
          "type": "uint256"
        }
      ],
      "name": "buy_vcash_property",
      "outputs": [
        {
          "internalType": "uint256",
          "name": "propertyId",
          "type": "uint256"
        }
      ],
      "stateMutability": "nonpayable",
      "type": "function"
    },
    {
      "inputs": [
        {
          "internalType": "uint256",
          "name": "profileId",
          "type": "uint256"
        },
        {
          "internalType": "uint256",
          "name": "balance",
          "type": "uint256"
        }
      ],
      "name": "buy_vertigo_property",
      "outputs": [
        {
          "internalType": "uint256",
          "name": "basePrice",
          "type": "uint256"
        },
        {
          "internalType": "uint256",
          "name": "propertyId",
          "type": "uint256"
        }
      ],
      "stateMutability": "nonpayable",
      "type": "function"
    },
    {
      "inputs": [],
      "name": "check_enabled",
      "outputs": [
        {
          "internalType": "bool",
          "name": "",
          "type": "bool"
        }
      ],
      "stateMutability": "view",
      "type": "function"
    },
    {
      "inputs": [],
      "name": "check_if_whitelisted",
      "outputs": [
        {
          "internalType": "uint256",
          "name": "",
          "type": "uint256"
        }
      ],
      "stateMutability": "view",
      "type": "function"
    },
    {
      "inputs": [
        {
          "internalType": "uint256",
          "name": "tokenId",
          "type": "uint256"
        }
      ],
      "name": "getApproved",
      "outputs": [
        {
          "internalType": "address",
          "name": "",
          "type": "address"
        }
      ],
      "stateMutability": "view",
      "type": "function"
    },
    {
      "inputs": [
        {
          "internalType": "uint256",
          "name": "profileId",
          "type": "uint256"
        }
      ],
      "name": "get_profile_arr",
      "outputs": [
        {
          "internalType": "uint256[11]",
          "name": "userDataArr",
          "type": "uint256[11]"
        }
      ],
      "stateMutability": "view",
      "type": "function"
    },
    {
      "inputs": [
        {
          "internalType": "uint256",
          "name": "profileId",
          "type": "uint256"
        }
      ],
      "name": "get_profile_level",
      "outputs": [
        {
          "internalType": "uint256",
          "name": "",
          "type": "uint256"
        }
      ],
      "stateMutability": "view",
      "type": "function"
    },
    {
      "inputs": [
        {
          "internalType": "uint256",
          "name": "profileId",
          "type": "uint256"
        }
      ],
      "name": "get_profile_struct",
      "outputs": [
        {
          "components": [
            {
              "internalType": "uint256",
              "name": "multiplier",
              "type": "uint256"
            },
            {
              "internalType": "uint256",
              "name": "VCashPropertyIndex",
              "type": "uint256"
            },
            {
              "internalType": "uint256",
              "name": "VERTPropertyIndex",
              "type": "uint256"
            },
            {
              "internalType": "uint256",
              "name": "teamPayoutShare",
              "type": "uint256"
            },
            {
              "internalType": "uint256",
              "name": "password",
              "type": "uint256"
            },
            {
              "internalType": "uint256",
              "name": "VCashStaked",
              "type": "uint256"
            },
            {
              "internalType": "uint256",
              "name": "userVCashBalance",
              "type": "uint256"
            },
            {
              "internalType": "uint256",
              "name": "payoutPerTx",
              "type": "uint256"
            },
            {
              "internalType": "uint256",
              "name": "pendingVCashDividends",
              "type": "uint256"
            },
            {
              "internalType": "uint256",
              "name": "lastUpdateTime",
              "type": "uint256"
            },
            {
              "internalType": "uint256",
              "name": "tier",
              "type": "uint256"
            }
          ],
          "internalType": "struct ProfileStorage.Profile",
          "name": "userProfile",
          "type": "tuple"
        }
      ],
      "stateMutability": "view",
      "type": "function"
    },
    {
      "inputs": [
        {
          "internalType": "uint256",
          "name": "profileId",
          "type": "uint256"
        }
      ],
      "name": "handle_pending_vcash",
      "outputs": [
        {
          "internalType": "uint256",
          "name": "pendingVCash",
          "type": "uint256"
        }
      ],
      "stateMutability": "nonpayable",
      "type": "function"
    },
    {
      "inputs": [
        {
          "internalType": "uint256",
          "name": "profileId",
          "type": "uint256"
        }
      ],
      "name": "increase_tier3_tier",
      "outputs": [
        {
          "internalType": "bool",
          "name": "success",
          "type": "bool"
        }
      ],
      "stateMutability": "nonpayable",
      "type": "function"
    },
    {
      "inputs": [
        {
          "internalType": "uint256[]",
          "name": "args",
          "type": "uint256[]"
        },
        {
          "internalType": "uint256",
          "name": "opcode",
          "type": "uint256"
        }
      ],
      "name": "infinite_connector",
      "outputs": [],
      "stateMutability": "nonpayable",
      "type": "function"
    },
    {
      "inputs": [
        {
          "internalType": "address",
          "name": "owner",
          "type": "address"
        },
        {
          "internalType": "address",
          "name": "operator",
          "type": "address"
        }
      ],
      "name": "isApprovedForAll",
      "outputs": [
        {
          "internalType": "bool",
          "name": "",
          "type": "bool"
        }
      ],
      "stateMutability": "view",
      "type": "function"
    },
    {
      "inputs": [
        {
          "internalType": "address",
          "name": "recipient",
          "type": "address"
        }
      ],
      "name": "mint",
      "outputs": [
        {
          "internalType": "uint256",
          "name": "newId",
          "type": "uint256"
        },
        {
          "internalType": "bool",
          "name": "success",
          "type": "bool"
        }
      ],
      "stateMutability": "nonpayable",
      "type": "function"
    },
    {
      "inputs": [
        {
          "internalType": "uint256",
          "name": "profileId",
          "type": "uint256"
        },
        {
          "internalType": "uint256",
          "name": "amount",
          "type": "uint256"
        },
        {
          "internalType": "bool",
          "name": "VCash",
          "type": "bool"
        },
        {
          "internalType": "bool",
          "name": "decrease",
          "type": "bool"
        }
      ],
      "name": "modify_paybonus",
      "outputs": [
        {
          "internalType": "uint256",
          "name": "success",
          "type": "uint256"
        }
      ],
      "stateMutability": "nonpayable",
      "type": "function"
    },
    {
      "inputs": [],
      "name": "name",
      "outputs": [
        {
          "internalType": "string",
          "name": "",
          "type": "string"
        }
      ],
      "stateMutability": "view",
      "type": "function"
    },
    {
      "inputs": [
        {
          "internalType": "uint256",
          "name": "tokenId",
          "type": "uint256"
        }
      ],
      "name": "ownerOf",
      "outputs": [
        {
          "internalType": "address",
          "name": "",
          "type": "address"
        }
      ],
      "stateMutability": "view",
      "type": "function"
    },
    {
      "inputs": [],
      "name": "propertyContract",
      "outputs": [
        {
          "internalType": "address",
          "name": "",
          "type": "address"
        }
      ],
      "stateMutability": "view",
      "type": "function"
    },
    {
      "inputs": [
        {
          "internalType": "address",
          "name": "from",
          "type": "address"
        },
        {
          "internalType": "address",
          "name": "to",
          "type": "address"
        },
        {
          "internalType": "uint256",
          "name": "tokenId",
          "type": "uint256"
        }
      ],
      "name": "safeTransferFrom",
      "outputs": [],
      "stateMutability": "nonpayable",
      "type": "function"
    },
    {
      "inputs": [
        {
          "internalType": "address",
          "name": "from",
          "type": "address"
        },
        {
          "internalType": "address",
          "name": "to",
          "type": "address"
        },
        {
          "internalType": "uint256",
          "name": "tokenId",
          "type": "uint256"
        },
        {
          "internalType": "bytes",
          "name": "data",
          "type": "bytes"
        }
      ],
      "name": "safeTransferFrom",
      "outputs": [],
      "stateMutability": "nonpayable",
      "type": "function"
    },
    {
      "inputs": [
        {
          "internalType": "address",
          "name": "operator",
          "type": "address"
        },
        {
          "internalType": "bool",
          "name": "approved",
          "type": "bool"
        }
      ],
      "name": "setApprovalForAll",
      "outputs": [],
      "stateMutability": "nonpayable",
      "type": "function"
    },
    {
      "inputs": [
        {
          "internalType": "string",
          "name": "newURI",
          "type": "string"
        },
        {
          "internalType": "uint256",
          "name": "tier",
          "type": "uint256"
        },
        {
          "internalType": "uint256",
          "name": "profileId",
          "type": "uint256"
        }
      ],
      "name": "set_URI",
      "outputs": [],
      "stateMutability": "nonpayable",
      "type": "function"
    },
    {
      "inputs": [
        {
          "internalType": "address",
          "name": "vertigo",
          "type": "address"
        },
        {
          "internalType": "address",
          "name": "property",
          "type": "address"
        }
      ],
      "name": "set_periphery_contracts",
      "outputs": [],
      "stateMutability": "nonpayable",
      "type": "function"
    },
    {
      "inputs": [
        {
          "internalType": "uint256",
          "name": "threshold",
          "type": "uint256"
        },
        {
          "internalType": "uint256",
          "name": "scalar",
          "type": "uint256"
        }
      ],
      "name": "set_upgrade_values",
      "outputs": [],
      "stateMutability": "nonpayable",
      "type": "function"
    },
    {
      "inputs": [
        {
          "internalType": "uint256",
          "name": "profileId",
          "type": "uint256"
        },
        {
          "internalType": "uint256",
          "name": "quantity",
          "type": "uint256"
        }
      ],
      "name": "stake_vcash",
      "outputs": [
        {
          "internalType": "uint256",
          "name": "success",
          "type": "uint256"
        }
      ],
      "stateMutability": "nonpayable",
      "type": "function"
    },
    {
      "inputs": [
        {
          "internalType": "bytes4",
          "name": "interfaceId",
          "type": "bytes4"
        }
      ],
      "name": "supportsInterface",
      "outputs": [
        {
          "internalType": "bool",
          "name": "",
          "type": "bool"
        }
      ],
      "stateMutability": "view",
      "type": "function"
    },
    {
      "inputs": [],
      "name": "symbol",
      "outputs": [
        {
          "internalType": "string",
          "name": "",
          "type": "string"
        }
      ],
      "stateMutability": "view",
      "type": "function"
    },
    {
      "inputs": [],
      "name": "tier3UpgradeScalar",
      "outputs": [
        {
          "internalType": "uint256",
          "name": "",
          "type": "uint256"
        }
      ],
      "stateMutability": "view",
      "type": "function"
    },
    {
      "inputs": [],
      "name": "tier3UpgradeThreshold",
      "outputs": [
        {
          "internalType": "uint256",
          "name": "",
          "type": "uint256"
        }
      ],
      "stateMutability": "view",
      "type": "function"
    },
    {
      "inputs": [
        {
          "internalType": "uint256",
          "name": "profileId",
          "type": "uint256"
        }
      ],
      "name": "tokenURI",
      "outputs": [
        {
          "internalType": "string",
          "name": "",
          "type": "string"
        }
      ],
      "stateMutability": "view",
      "type": "function"
    },
    {
      "inputs": [
        {
          "internalType": "address",
          "name": "from",
          "type": "address"
        },
        {
          "internalType": "address",
          "name": "to",
          "type": "address"
        },
        {
          "internalType": "uint256",
          "name": "tokenId",
          "type": "uint256"
        }
      ],
      "name": "transferFrom",
      "outputs": [],
      "stateMutability": "nonpayable",
      "type": "function"
    },
    {
      "inputs": [
        {
          "internalType": "uint256",
          "name": "profileId",
          "type": "uint256"
        }
      ],
      "name": "upgrade_profile",
      "outputs": [],
      "stateMutability": "nonpayable",
      "type": "function"
    },
    {
      "inputs": [],
      "name": "vertigoContract",
      "outputs": [
        {
          "internalType": "address",
          "name": "",
          "type": "address"
        }
      ],
      "stateMutability": "view",
      "type": "function"
    },
    {
      "inputs": [
        {
          "internalType": "uint256",
          "name": "profileId",
          "type": "uint256"
        }
      ],
      "name": "view_total_pending_vcash_earnings",
      "outputs": [
        {
          "internalType": "uint256",
          "name": "",
          "type": "uint256"
        }
      ],
      "stateMutability": "view",
      "type": "function"
    },
    {
      "inputs": [
        {
          "internalType": "uint256",
          "name": "profileId",
          "type": "uint256"
        }
      ],
      "name": "weekly_reset",
      "outputs": [],
      "stateMutability": "nonpayable",
      "type": "function"
    },
    {
      "inputs": [
        {
          "internalType": "address",
          "name": "userAddress",
          "type": "address"
        },
        {
          "internalType": "uint256",
          "name": "tier",
          "type": "uint256"
        }
      ],
      "name": "whitelist_user",
      "outputs": [],
      "stateMutability": "nonpayable",
      "type": "function"
    }
  ],
  "bytecode": "0x60806040523480156200001157600080fd5b506040518060400160405280600f81526020016e5665727469676f2050726f66696c6560881b815250604051806040016040528060058152602001645646494c4560d81b815250816000908162000069919062000138565b50600162000078828262000138565b5050600f80546001600160a01b031916331790555062000204565b634e487b7160e01b600052604160045260246000fd5b600181811c90821680620000be57607f821691505b602082108103620000df57634e487b7160e01b600052602260045260246000fd5b50919050565b601f8211156200013357600081815260208120601f850160051c810160208610156200010e5750805b601f850160051c820191505b818110156200012f578281556001016200011a565b5050505b505050565b81516001600160401b0381111562000154576200015462000093565b6200016c81620001658454620000a9565b84620000e5565b602080601f831160018114620001a457600084156200018b5750858301515b600019600386901b1c1916600185901b1785556200012f565b600085815260208120601f198616915b82811015620001d557888601518255948401946001909101908401620001b4565b5085821015620001f45787850151600019600388901b60f8161c191681555b5050505050600190811b01905550565b612ffa80620002146000396000f3fe608060405234801561001057600080fd5b50600436106102315760003560e01c80638922329e11610130578063b35af7c8116100b8578063dd48920e1161007c578063dd48920e1461057d578063e442cc3214610590578063e985e9c5146105a3578063e9c63014146105b6578063f2c251be146105c957600080fd5b8063b35af7c814610509578063b88d4fde1461051c578063c255fb7b1461052f578063c87b56dd14610542578063cb3d1d291461055557600080fd5b806395dea57b116100ff57806395dea57b1461042d578063a16a64c614610440578063a22cb46514610455578063a832e76114610468578063afda41301461047157600080fd5b80638922329e146103f65780638fca967314610409578063920e7c481461041c57806395d89b411461042557600080fd5b806342842e0e116101be5780636a627842116101825780636a6278421461038257806370a08231146103aa57806378f1eaef146103bd5780637f8e04ea146103d057806382585e53146103e357600080fd5b806342842e0e1461032357806344bb8a1a146103365780634bd5e115146103495780636352211e1461035c57806368c2151e1461036f57600080fd5b8063081812fc11610205578063081812fc1461029f578063095ea7b3146102ca57806323b872dd146102dd5780633ddc9f6b146102f0578063403f6a671461030357600080fd5b8062fdf19f146102365780630101fc811461025257806301ffc9a71461026757806306fdde031461028a575b600080fd5b61023f60105481565b6040519081526020015b60405180910390f35b610265610260366004612611565b6105e9565b005b61027a610275366004612640565b6108b3565b6040519015158152602001610249565b610292610905565b60405161024991906126b4565b6102b26102ad366004612611565b610997565b6040516001600160a01b039091168152602001610249565b6102656102d83660046126dc565b6109be565b6102656102eb366004612708565b610ad8565b6102656102fe366004612820565b610b09565b61023f610311366004612611565b60009081526007602052604090205490565b610265610331366004612708565b610b5c565b61023f610344366004612611565b610b77565b61023f610357366004612611565b610df5565b6102b261036a366004612611565b610eb6565b61023f61037d366004612882565b610f16565b6103956103903660046128a4565b610fe9565b60408051928352901515602083015201610249565b61023f6103b83660046128a4565b6110c1565b6102656103cb366004612611565b611147565b6102656103de3660046128c1565b611319565b600e546001600160a01b0316151561027a565b6102656104043660046126dc565b6114a0565b600d546102b2906001600160a01b031681565b61023f60115481565b610292611529565b61027a61043b366004612611565b611538565b3360009081526009602052604090205461023f565b61026561046336600461297b565b6115a4565b61023f60125481565b61048461047f366004612611565b6115b3565b6040516102499190600061016082019050825182526020830151602083015260408301516040830152606083015160608301526080830151608083015260a083015160a083015260c083015160c083015260e083015160e083015261010080840151818401525061012080840151818401525061014080840151818401525092915050565b610265610517366004612882565b6116c3565b61026561052a3660046129b4565b6116f2565b61023f61053d366004612611565b611724565b610292610550366004612611565b6117ca565b610568610563366004612882565b6118cb565b60408051928352602083019190915201610249565b600e546102b2906001600160a01b031681565b61023f61059e366004612a34565b611b31565b61027a6105b1366004612a7e565b611c0b565b6102656105c4366004612a7e565b611c39565b6105dc6105d7366004612611565b611ca5565b6040516102499190612aac565b6105f281610eb6565b6001600160a01b0316336001600160a01b03161461060f57600080fd5b60008181526007602052604090205460321161062a57600080fd5b6000610635826115b3565b905080610140015160021461064957600080fd5b600082815260076020819052604082205461066391612af4565b61066e906016612b0b565b9050610682670de0b6b3a764000082612af4565b600e546040516370a0823160e01b81523360048201529192506001600160a01b031690829082906370a0823190602401602060405180830381865afa1580156106cf573d6000803e3d6000fd5b505050506040513d601f19601f820116820180604052508101906106f39190612b1e565b10156106fe57600080fd5b6000336001600160a01b031690506000826001600160a01b0316636d9b32b16040518163ffffffff1660e01b8152600401602060405180830381865afa15801561074c573d6000803e3d6000fd5b505050506040513d601f19601f820116820180604052508101906107709190612b37565b604080516003808252608082019092526001600160a01b03929092169250600091906020820160608036833701905050905082816000815181106107b6576107b6612b54565b60200260200101818152505081816001815181106107d6576107d6612b54565b60200260200101818152505084816002815181106107f6576107f6612b54565b6020908102919091010152604051633fc7027560e11b81526001600160a01b03851690637f8e04ea90610830908490600390600401612b6a565b600060405180830381600087803b15801561084a57600080fd5b505af115801561085e573d6000803e3d6000fd5b5050506000888152600760205260408120805460019350909190610883908490612b0b565b90915550506000878152600760205260409020546032036108aa576108aa87600180611d5f565b50505050505050565b60006001600160e01b031982166380ac58cd60e01b14806108e457506001600160e01b03198216635b5e139f60e01b145b806108ff57506301ffc9a760e01b6001600160e01b03198316145b92915050565b60606000805461091490612bb2565b80601f016020809104026020016040519081016040528092919081815260200182805461094090612bb2565b801561098d5780601f106109625761010080835404028352916020019161098d565b820191906000526020600020905b81548152906001019060200180831161097057829003601f168201915b5050505050905090565b60006109a282611ea1565b506000908152600460205260409020546001600160a01b031690565b60006109c982610eb6565b9050806001600160a01b0316836001600160a01b031603610a3b5760405162461bcd60e51b815260206004820152602160248201527f4552433732313a20617070726f76616c20746f2063757272656e74206f776e656044820152603960f91b60648201526084015b60405180910390fd5b336001600160a01b0382161480610a575750610a578133611c0b565b610ac95760405162461bcd60e51b815260206004820152603d60248201527f4552433732313a20617070726f76652063616c6c6572206973206e6f7420746f60448201527f6b656e206f776e6572206f7220617070726f76656420666f7220616c6c0000006064820152608401610a32565b610ad38383611ef4565b505050565b610ae23382611f62565b610afe5760405162461bcd60e51b8152600401610a3290612be6565b610ad3838383611fc0565b600f546001600160a01b03163314610b2057600080fd5b8015610b44576000818152600b60205260409020610b3e8482612c79565b50505050565b6000828152600c60205260409020610b3e8482612c79565b610ad3838383604051806020016040528060008152506116f2565b600e546000906001600160a01b03163314610b9157600080fd5b6000610b9c836115b3565b600e54600d5460405163e6f1f73d60e01b815260048101869052600160248201529293506001600160a01b0391821692911690600090829063e6f1f73d90604401600060405180830381865afa158015610bfa573d6000803e3d6000fd5b505050506040513d6000823e601f3d908101601f19168201604052610c229190810190612d8e565b90506000836001600160a01b031663224b610b6040518163ffffffff1660e01b8152600401602060405180830381865afa158015610c64573d6000803e3d6000fd5b505050506040513d601f19601f82011682018060405250810190610c889190612b1e565b60208601516101408701519192509060021480610caa57508561014001516001145b610cb357600080fd5b80866020015114610cc357600080fd5b8260e001518660c001511015610cd857600080fd5b81866080015114610ce857600080fd5b610cf188612131565b610d10888460c001518860e00151610d099190612b0b565b6008611d5f565b610d2f888460e001518860c00151610d289190612e81565b6007611d5f565b610d4b8887602001516001610d449190612b0b565b6002611d5f565b836001600160a01b0316637638fc6d610d638a610eb6565b6040516001600160e01b031960e084901b1681526001600160a01b039091166004820152602481018b905260448101849052600160648201819052608482015260a4016020604051808303816000875af1158015610dc5573d6000803e3d6000fd5b505050506040513d601f19601f82011682018060405250810190610de99190612b1e565b98975050505050505050565b6000610e00826121d3565b610e0957600080fd5b610e1282612131565b6000610e1d836115b3565b61010081015190915015610eb05761010081015160008481526008602052604081208054909190610e4f908490612b0b565b92505081905550610e6f838261010001518360c00151610d289190612b0b565b610e7c8360006009611d5f565b6040518281527f21bfbfd10eb71e6303c3fe56b90c8b22bfbba18e628627e3d7b93d759bec8f259060200160405180910390a15b50919050565b6000818152600260205260408120546001600160a01b0316806108ff5760405162461bcd60e51b8152602060048201526018602482015277115490cdcc8c4e881a5b9d985b1a59081d1bdad95b88125160421b6044820152606401610a32565b600e546000906001600160a01b03163314610f3057600080fd5b6000610f3b846115b3565b90508060c00151831115610f4e57600080fd5b610f6284848360c00151610d289190612e81565b60008481526007602052604090205415610fc457600084815260076020526040902054610140820151600114610f9a576103e8610f9e565b6101f45b61ffff16610fac8286612af4565b610fb69190612e94565b610fc09085612b0b565b9350505b610fdf84848360a00151610fd89190612b0b565b6006611d5f565b5060019392505050565b600e5460009081906001600160a01b0316331461100557600080fd5b6001600160a01b03831660009081526009602052604090205461102757600080fd5b601080549250600190600061103c8386612b0b565b9091555061104c905083836121f0565b6001600160a01b038316600081815260096020818152604080842080548886526006845291852091831b6103e817918290559490935252905460010361109f576000838152600760205260409020603290555b50506001600160a01b0390911660009081526009602052604081205590600190565b60006001600160a01b03821661112b5760405162461bcd60e51b815260206004820152602960248201527f4552433732313a2061646472657373207a65726f206973206e6f7420612076616044820152683634b21037bbb732b960b91b6064820152608401610a32565b506001600160a01b031660009081526003602052604090205490565b600e546001600160a01b0316331461115e57600080fd5b611167816121d3565b61117057600080fd5b600061117b826115b3565b90506000600e60009054906101000a90046001600160a01b031690506000816001600160a01b031663224b610b6040518163ffffffff1660e01b8152600401602060405180830381865afa1580156111d7573d6000803e3d6000fd5b505050506040513d601f19601f820116820180604052508101906111fb9190612b1e565b905061120684610df5565b50808360800151036112185750505050565b611223600182612e81565b8360800151148015611239575060008360a00151115b156112dd57600e546001600160a01b031680634148f09d61125987610eb6565b608087015160a08801516040516001600160e01b031960e086901b1681526001600160a01b039093166004840152602483019190915260448201526064016020604051808303816000875af11580156112b6573d6000803e3d6000fd5b505050506040513d601f19601f820116820180604052508101906112da9190612eb6565b50505b6112ea8460006006611d5f565b6112f684826005611d5f565b60038361014001511015610b3e57610b3e848460c001516096610d289190612b0b565b336000908152600a60205260408120549081900361133657600080fd5b6000821180156113465750600482105b61134f57600080fd5b81600114801561135f5750806001145b806113765750806101a41480156113765750816001145b156113f657825160021461138957600080fd5b60008360008151811061139e5761139e612b54565b602002602001015190506000846001815181106113bd576113bd612b54565b60200260200101519050816008600083815260200190815260200160002060008282546113ea9190612b0b565b90915550505050505050565b8160021480156114065750806002145b8061141d5750806101a414801561141d5750816002145b15610ad357825160031461143057600080fd5b60008360008151811061144557611445612b54565b6020026020010151905060008460018151811061146457611464612b54565b6020026020010151905060008560028151811061148357611483612b54565b60200260200101519050611498838383611d5f565b505050505050565b600f546001600160a01b03163314806114c85750336000908152600a60205260409020546001145b6114d157600080fd5b6001600160a01b038216600081815260096020908152604091829020849055815192835282018390527f447615df38266f7c2e25889e02cfbee3ed7713cc91ac1629e2bbcc955fdc8190910160405180910390a15050565b60606001805461091490612bb2565b600080611544836115b3565b905080610140015160031461155857600080fd5b601154600084815260086020526040902054101561157557600080fd5b6115828360026001611d5f565b601254601160008282546115969190612b0b565b909155506001949350505050565b6115af33838361236b565b5050565b61161060405180610160016040528060008152602001600081526020016000815260200160008152602001600081526020016000815260200160008152602001600081526020016000815260200160008152602001600081525090565b611619826121d3565b61162257600080fd5b6000918252600660209081526040928390205463ffffffff808216845281831c60ff908116610140860152602883901c811693850193909352603082901c831684860152603882901c90921660608401529283901c61ffff166080830152605083901c811660a0830152607083901c811660c0830152609083901c811660e083015260b083901c811661010083015260d09290921c90911661012082015290565b600f546001600160a01b031633146116da57600080fd5b81156116e65760118290555b80156115af5760125550565b6116fc3383611f62565b6117185760405162461bcd60e51b8152600401610a3290612be6565b610b3e84848484612439565b600061172f826121d3565b61173857600080fd5b6000611743836115b3565b90506000808260e0015111156117b2576000826101200151426117669190612e81565b9050621baf808110156117b0576103e88360000151620151808560e001518461178f9190612af4565b6117999190612e94565b6117a39190612af4565b6117ad9190612e94565b91505b505b6101008201516117c29082612b0b565b949350505050565b60606117d5826121d3565b6117de57600080fd5b60006117e9836115b3565b6000848152600b6020526040902080549192509061180690612bb2565b1590506118ac576000838152600b60205260409020805461182690612bb2565b80601f016020809104026020016040519081016040528092919081815260200182805461185290612bb2565b801561189f5780601f106118745761010080835404028352916020019161189f565b820191906000526020600020905b81548152906001019060200180831161188257829003601f168201915b5050505050915050919050565b6101408101516000908152600c60205260409020805461182690612bb2565b600e5460009081906001600160a01b031633146118e757600080fd5b60006118f2856115b3565b600e54600d5460405163e6f1f73d60e01b815260048101869052600260248201529293506001600160a01b0391821692911690600090829063e6f1f73d90604401600060405180830381865afa158015611950573d6000803e3d6000fd5b505050506040513d6000823e601f3d908101601f191682016040526119789190810190612d8e565b90506000836001600160a01b031663224b610b6040518163ffffffff1660e01b8152600401602060405180830381865afa1580156119ba573d6000803e3d6000fd5b505050506040513d601f19601f820116820180604052508101906119de9190612b1e565b60408601516101408701519192509060021480611a0057508561014001516001145b611a0957600080fd5b8260e001518911611a1957600080fd5b80866040015114611a2957600080fd5b81866080015114611a3957600080fd5b611a428a612131565b611a5e8a87604001516001611a579190612b0b565b6003611d5f565b611a7d8a8460c001518860000151611a769190612b0b565b6000611d5f565b836001600160a01b0316637638fc6d611a958c610eb6565b6040516001600160e01b031960e084901b1681526001600160a01b039091166004820152602481018d905260448101849052600060648201526001608482015260a4016020604051808303816000875af1158015611af7573d6000803e3d6000fd5b505050506040513d601f19601f82011682018060405250810190611b1b9190612b1e565b96508260e0015197505050505050509250929050565b6000611b3c856121d3565b611b4557600080fd5b600d546001600160a01b03163314611b5c57600080fd5b611b6585612131565b6000611b70866115b3565b90508215611bdd578315611bad57848160e001511015611b8f57600080fd5b611ba386868360e00151610d099190612e81565b60019150506117c2565b80516103e890611bbe908790612e81565b1015611bc957600080fd5b611ba386868360000151611a769190612e81565b8315611bf757611ba386868360e00151610d099190612b0b565b611ba386868360000151611a769190612b0b565b6001600160a01b03918216600090815260056020908152604080832093909416825291909152205460ff1690565b600f546001600160a01b03163314611c5057600080fd5b600e80546001600160a01b039384166001600160a01b03199182168117909255600d8054938516939091169290921782556000908152600a60205260408082206101a490819055925490931681529190912055565b611cad6125f2565b611cb6826121d3565b611cbf57600080fd5b6000918252600660209081526040928390205463ffffffff808216845260ff82841c811693850193909352602882901c831684860152603082901c83166060850152603882901c90921660808401529283901c61ffff1660a0830152605083901c811660c0830152607083901c811660e0830152609083901c811661010083015260b083901c811661012083015260d09290921c90911661014082015290565b611d68836121d3565b611d7157600080fd5b600b8110611d7e57600080fd5b801580611d8b5750600581115b15611da65763ffffffff821115611da157600080fd5b611dd4565b6005811015611dbd5760ff821115611da157600080fd5b80600503611dd45761ffff821115611dd457600080fd5b6000611ddf84611ca5565b9050828183600b8110611df457611df4612b54565b602090810291909101919091528151908260016020020151901b1760288260026020020151901b1760308260036020020151901b1760388260046020020151901b1760408260056020020151901b1760508260066020020151901b1760708260076020020151901b1760908260086020020151901b1760b08260096020020151901b1760d082600a6020908102919091015160009788526006909152604090962095901b17909355505050565b611eaa816121d3565b611ef15760405162461bcd60e51b8152602060048201526018602482015277115490cdcc8c4e881a5b9d985b1a59081d1bdad95b88125160421b6044820152606401610a32565b50565b600081815260046020526040902080546001600160a01b0319166001600160a01b0384169081179091558190611f2982610eb6565b6001600160a01b03167f8c5be1e5ebec7d5bd14f71427d1e84f3dd0314c0f7b2291e5b200ac8c7c3b92560405160405180910390a45050565b600080611f6e83610eb6565b9050806001600160a01b0316846001600160a01b03161480611f955750611f958185611c0b565b806117c25750836001600160a01b0316611fae84610997565b6001600160a01b031614949350505050565b826001600160a01b0316611fd382610eb6565b6001600160a01b031614611ff95760405162461bcd60e51b8152600401610a3290612ed3565b6001600160a01b03821661205b5760405162461bcd60e51b8152602060048201526024808201527f4552433732313a207472616e7366657220746f20746865207a65726f206164646044820152637265737360e01b6064820152608401610a32565b612068838383600161246c565b826001600160a01b031661207b82610eb6565b6001600160a01b0316146120a15760405162461bcd60e51b8152600401610a3290612ed3565b600081815260046020908152604080832080546001600160a01b03199081169091556001600160a01b0387811680865260038552838620805460001901905590871680865283862080546001019055868652600290945282852080549092168417909155905184937fddf252ad1be2c89b69c2b068fc378daa952ba7f163c4a11628f55a4df523b3ef91a4505050565b600061213c826115b3565b60e0810151909150156121c75760008161012001514261215c9190612e81565b9050621baf808110156121c55760006103e88360000151620151808560e00151856121879190612af4565b6121919190612e94565b61219b9190612af4565b6121a59190612e94565b90506121c384828561010001516121bc9190612b0b565b6009611d5f565b505b505b6115af8242600a611d5f565b6000908152600260205260409020546001600160a01b0316151590565b6001600160a01b0382166122465760405162461bcd60e51b815260206004820181905260248201527f4552433732313a206d696e7420746f20746865207a65726f20616464726573736044820152606401610a32565b61224f816121d3565b1561229c5760405162461bcd60e51b815260206004820152601c60248201527f4552433732313a20746f6b656e20616c7265616479206d696e746564000000006044820152606401610a32565b6122aa60008383600161246c565b6122b3816121d3565b156123005760405162461bcd60e51b815260206004820152601c60248201527f4552433732313a20746f6b656e20616c7265616479206d696e746564000000006044820152606401610a32565b6001600160a01b038216600081815260036020908152604080832080546001019055848352600290915280822080546001600160a01b0319168417905551839291907fddf252ad1be2c89b69c2b068fc378daa952ba7f163c4a11628f55a4df523b3ef908290a45050565b816001600160a01b0316836001600160a01b0316036123cc5760405162461bcd60e51b815260206004820152601960248201527f4552433732313a20617070726f766520746f2063616c6c6572000000000000006044820152606401610a32565b6001600160a01b03838116600081815260056020908152604080832094871680845294825291829020805460ff191686151590811790915591519182527f17307eab39ab6107e8899845ad3d59bd9653f200f220920489ca2b5937696c31910160405180910390a3505050565b612444848484611fc0565b612450848484846124f4565b610b3e5760405162461bcd60e51b8152600401610a3290612f18565b6001811115610b3e576001600160a01b038416156124b2576001600160a01b038416600090815260036020526040812080548392906124ac908490612e81565b90915550505b6001600160a01b03831615610b3e576001600160a01b038316600090815260036020526040812080548392906124e9908490612b0b565b909155505050505050565b60006001600160a01b0384163b156125ea57604051630a85bd0160e11b81526001600160a01b0385169063150b7a0290612538903390899088908890600401612f6a565b6020604051808303816000875af1925050508015612573575060408051601f3d908101601f1916820190925261257091810190612fa7565b60015b6125d0573d8080156125a1576040519150601f19603f3d011682016040523d82523d6000602084013e6125a6565b606091505b5080516000036125c85760405162461bcd60e51b8152600401610a3290612f18565b805181602001fd5b6001600160e01b031916630a85bd0160e11b1490506117c2565b5060016117c2565b604051806101600160405280600b906020820280368337509192915050565b60006020828403121561262357600080fd5b5035919050565b6001600160e01b031981168114611ef157600080fd5b60006020828403121561265257600080fd5b813561265d8161262a565b9392505050565b60005b8381101561267f578181015183820152602001612667565b50506000910152565b600081518084526126a0816020860160208601612664565b601f01601f19169290920160200192915050565b60208152600061265d6020830184612688565b6001600160a01b0381168114611ef157600080fd5b600080604083850312156126ef57600080fd5b82356126fa816126c7565b946020939093013593505050565b60008060006060848603121561271d57600080fd5b8335612728816126c7565b92506020840135612738816126c7565b929592945050506040919091013590565b634e487b7160e01b600052604160045260246000fd5b604051610160810167ffffffffffffffff8111828210171561278357612783612749565b60405290565b604051601f8201601f1916810167ffffffffffffffff811182821017156127b2576127b2612749565b604052919050565b600067ffffffffffffffff8211156127d4576127d4612749565b50601f01601f191660200190565b60006127f56127f0846127ba565b612789565b905082815283838301111561280957600080fd5b828260208301376000602084830101529392505050565b60008060006060848603121561283557600080fd5b833567ffffffffffffffff81111561284c57600080fd5b8401601f8101861361285d57600080fd5b61286c868235602084016127e2565b9660208601359650604090950135949350505050565b6000806040838503121561289557600080fd5b50508035926020909101359150565b6000602082840312156128b657600080fd5b813561265d816126c7565b600080604083850312156128d457600080fd5b823567ffffffffffffffff808211156128ec57600080fd5b818501915085601f83011261290057600080fd5b813560208282111561291457612914612749565b8160051b9250612925818401612789565b828152928401810192818101908985111561293f57600080fd5b948201945b8486101561295d57853582529482019490820190612944565b9997909101359750505050505050565b8015158114611ef157600080fd5b6000806040838503121561298e57600080fd5b8235612999816126c7565b915060208301356129a98161296d565b809150509250929050565b600080600080608085870312156129ca57600080fd5b84356129d5816126c7565b935060208501356129e5816126c7565b925060408501359150606085013567ffffffffffffffff811115612a0857600080fd5b8501601f81018713612a1957600080fd5b612a28878235602084016127e2565b91505092959194509250565b60008060008060808587031215612a4a57600080fd5b84359350602085013592506040850135612a638161296d565b91506060850135612a738161296d565b939692955090935050565b60008060408385031215612a9157600080fd5b8235612a9c816126c7565b915060208301356129a9816126c7565b6101608101818360005b600b811015612ad5578151835260209283019290910190600101612ab6565b50505092915050565b634e487b7160e01b600052601160045260246000fd5b80820281158282048414176108ff576108ff612ade565b808201808211156108ff576108ff612ade565b600060208284031215612b3057600080fd5b5051919050565b600060208284031215612b4957600080fd5b815161265d816126c7565b634e487b7160e01b600052603260045260246000fd5b604080825283519082018190526000906020906060840190828701845b82811015612ba357815184529284019290840190600101612b87565b50505092019290925292915050565b600181811c90821680612bc657607f821691505b602082108103610eb057634e487b7160e01b600052602260045260246000fd5b6020808252602d908201527f4552433732313a2063616c6c6572206973206e6f7420746f6b656e206f776e6560408201526c1c881bdc88185c1c1c9bdd9959609a1b606082015260800190565b601f821115610ad357600081815260208120601f850160051c81016020861015612c5a5750805b601f850160051c820191505b8181101561149857828155600101612c66565b815167ffffffffffffffff811115612c9357612c93612749565b612ca781612ca18454612bb2565b84612c33565b602080601f831160018114612cdc5760008415612cc45750858301515b600019600386901b1c1916600185901b178555611498565b600085815260208120601f198616915b82811015612d0b57888601518255948401946001909101908401612cec565b5085821015612d295787850151600019600388901b60f8161c191681555b5050505050600190811b01905550565b600082601f830112612d4a57600080fd5b8151612d586127f0826127ba565b818152846020838601011115612d6d57600080fd5b6117c2826020830160208701612664565b8051612d898161296d565b919050565b600060208284031215612da057600080fd5b815167ffffffffffffffff80821115612db857600080fd5b908301906101608286031215612dcd57600080fd5b612dd561275f565b825182811115612de457600080fd5b612df087828601612d39565b825250612dff60208401612d7e565b6020820152612e1060408401612d7e565b6040820152612e2160608401612d7e565b6060820152612e3260808401612d7e565b608082015260a0838101519082015260c0808401519082015260e08084015190820152610100808401519082015261012080840151908201526101409283015192810192909252509392505050565b818103818111156108ff576108ff612ade565b600082612eb157634e487b7160e01b600052601260045260246000fd5b500490565b600060208284031215612ec857600080fd5b815161265d8161296d565b60208082526025908201527f4552433732313a207472616e736665722066726f6d20696e636f72726563742060408201526437bbb732b960d91b606082015260800190565b60208082526032908201527f4552433732313a207472616e7366657220746f206e6f6e20455243373231526560408201527131b2b4bb32b91034b6b83632b6b2b73a32b960711b606082015260800190565b6001600160a01b0385811682528416602082015260408101839052608060608201819052600090612f9d90830184612688565b9695505050505050565b600060208284031215612fb957600080fd5b815161265d8161262a56fea2646970667358221220113cdec527d9e2b351699eef8e1d02a27e95a04c21f1cfe9554a34946725a42364736f6c63430008110033",
  "linkReferences": {},
  "deployedLinkReferences": {}
}